S0110000626F6F746C6F616465722E733337B8
S3150FE1080090100020C93BE10F470BE10FC50CE10F3B
S3150FE108109B0CE10F731AE10FA31FE10F000000001C
S3150FE1082000000000000000004008E10FE337E10F90
S3150FE10830EB37E10F000000005B3BE10F773BE10F88
S3150FE1084007B0CD5E01000000000001013034000069
S3150FE108500000000000000800F0000100510EE10F5A
S3150FE10860550EE10FB50FE10F112AE10F3F2AE10F07
S3150FE108707C09E10F533235464C3230384B000000DC
S3150FE108805732355832304256000000005732355153
S3150FE1089038304256000000004D5832354C32303078
S3150FE108A0364500004D5832354C3430303645000070
S3150FE108B04D5832354C383030364500004D583235CB
S3150FE108C052383033354600004D5832354C313630DB
S3150FE108D0364500004D583235553136333545000032
S3150FE108E04D583235523634333546000041543235A0
S3150FE108F044463034314100004154323544463038B4
S3150FE109003141000041543235534630343100000055
S3150FE109104D323550323000004D3235503430000013
S3150FE109204D32355038300000495332354C51303263
S3150FE1093035420000495332354C51353132420000D0
S3150FE10940495332354C51303130420000495332353B
S3150FE109504C51303230420000495332354C5130342C
S3150FE1096030420000000000000200000000200000FD
S3150FE1097000F003000010040000F003000001000086
S3150FE10980751AE10FCD1AE10FF71AE10F151BE10FFA
S3150FE10990591BE10F3719E10F3118E10F0F1AE10F6B
S3150FE109A0731BE10F9D1BE10FFD1BE10FE513E10F3B
S3150FE109B00114E10F3F14E10FF914E10F0A0A484060
S3150FE109C000F0FF0008214308C00746BF034858401F
S3150FE109D01846491EF7D15040704700002083B8ED05
S3150FE109E070B504460D461046002604E00146A05DAB
S3150FE109F0FFF7E4FF761CAE42F8D370BD82B000EB91
S3150FE10A0040000021CDE90001DDE90001421E61F15F
S3150FE10A100003CDE9002300229142F5D19042F3D1B3
S3150FE10A2002B0704780B501213C4800F09DF80121E5
S3150FE10A303B4800F099F8002304220621022000F03A
S3150FE10A40DFF8002302220721022000F0D9F8002364
S3150FE10A5004220821022000F0D3F801230422042105
S3150FE10A60002000F0CDF82F4840F6AA61C1600021C1
S3150FE10A708160C1642C49816440F20141016041F218
S3150FE10A80050141602949096801290CBF4FF48061CD
S3150FE10A904FF4106141611021C1600B214167244977
S3150FE10AA081670521C16001BD01461CE038B50446E9
S3150FE10AB01C4D2102090E00F012F82104090E00F077
S3150FE10AC00EF800F00BF8284600F0D4F8284600F0AF
S3150FE10AD0D1F82846BDE8324000F0CCB8E1B228465D
S3150FE10AE000F0D6B8FF210F4800F0C8B838B50D4C65
S3150FE10AF0FF21204600F0CCF8FF21204600F0C8F890
S3150FE10B00204600F0B7F80546204600F0B3F840EA74
S3150FE10B10052032BD074913E000000000003508004B
S3150FE10B200042040000040140F9FF010094400E4029
S3150FE10B300B0B000B0CA00044004901E00CA0004692
S3150FE10B40102008607047FEE7890001EB401000F1C5
S3150FE10B50844002607047DFF874104A68D20702D406
S3150FE10B600A680242FCD1704770B502120C4602F0D8
S3150FE10B700F020021521E092ADFF8545014D8DFE87C
S3150FE10B8002F005141313071619131C20DFF838505A
S3150FE10B90C0F3043611B10846FFF7DDFF22463146B1
S3150FE10BA02846BDE87040CFE770BD1035F0E7303528
S3150FE10BB00121EDE738351021EAE740354FF4803171
S3150FE10BC0E6E7DFF81050E3E700400E4040410E4004
S3150FE10BD0B0400E4050410E403023254A5843104451
S3150FE10BE00C3000F1806006E03023214A584310446F
S3150FE10BF00C3000F1C060012202FA01F10160704789
S3150FE10C00F8B50446164630000D461F4607D0002FAD
S3150FE10C10204602D0FFF7E8FF01E0FFF7DDFF3021C5
S3150FE10C200F22134811FB04F1082D084405D2AB003E
S3150FE10C30416800F015F8416006E0A5F108039B0055
S3150FE10C40816800F00DF881604EB9002F29462046E4
S3150FE10C5002D0BDE8F440C7E7BDE8F440BCE7F1BD1B
S3150FE10C609A4021EA020206FA03F1114370470000A6
S3150FE10C7000A0004001690906FCD506E002695206AB
S3150FE10C80FCD5416301698906FCD5C069C0B27047DD
S3150FE10C9002695206FCD541637047FEE706480068D4
S3150FE10CA0006970470548064A00680168914201D11B
S3150FE10CB000697047002070472808E10F2800E10F0F
S3150FE10CC0AD1007B04FF4017000F08CF800BF384853
S3150FE10CD038490068086082B03748016841F480718D
S3150FE10CE0016040213548C16001684903FCD400F039
S3150FE10CF0AFF800F072F800F0B1F810B940F2012048
S3150FE10D000EE040F205422E49009190420DD102E0EC
S3150FE10D100098401E009000980128F9DA40F203206E
S3150FE10D2000F060F80098401E009000980128F9DA6B
S3150FE10D304FF40170F4E7000038B522480168012449
S3150FE10D400125B1F5803F08BF00250FD000684005AA
S3150FE10D500CD500F069F840F20221401A04D0C01E0A
S3150FE10D6002D0C01E012801D8002400250420006806
S3150FE10D7010F1010F06D1BDE832404FF4027000F0D9
S3150FE10D8025B831BD25B1002000F014F90400F2D0E9
S3150FE10D90002CF6D00C4900200860002210460168AD
S3150FE10DA081F3088881F3098840688746FEE70000EA
S3150FE10DB0840000208800002000000E4004300E4021
S3150FE10DC08096980004500E4008ED00E04FF0005178
S3150FE10DD008804FF20F00488070470F494CF23C30C4
S3150FE10DE0088070474FF0005108804FF20F0048809E
S3150FE10DF00A48016821F4E06141F480610160BFF3C3
S3150FE10E004F8F0748074A016801F4E061114301601A
S3150FE10E10BFF34F8F00BFFDE70200002000500E40E9
S3150FE10E200CED00E00400FA054FF000504FF20F020F
S3150FE10E304188914201D100887047002904BF00889B
S3150FE10E40012802D140F2022070474FF4007070473B
S3150FE10E5000F09DBA00F0B5BB0020704730B50FF238
S3150FE10E609801E3B0D1E9002368460221C0E90023E6
S3150FE10E70002500F0DDFC002839D100245DF82400BF
S3150FE10E8010F1010F2BD04FF4C07202A900F071FEE1
S3150FE10E90002102A800F082FE40F201218842F7D03C
S3150FE10EA040F2032188421AD19DF809009DF80810F6
S3150FE10EB071B1A0B10F48006803998068884208D2E2
S3150FE10EC05E9800F0F6FE50B140F20920FFF78AFF77
S3150FE10ED028B103A881685E9800F002FF18B9641C77
S3150FE10EE0022CCBD301E0002001E040F2054063B0D4
S3150FE10EF030BD00002808E10FFFFFFFFF00000000F3
S3150FE10F002DE9F041044666480068884601691646B0
S3150FE10F108C4222BF37194069B84216D3E00AB4EBC7
S3150FE10F20C02004BF204600F027FF04F50060C50A84
S3150FE10F30ED0204E0284600F01FFF05F50065BD420E
S3150FE10F40F8D332464146204630E0BDE8F0812DE93F
S3150FE10F50F04188465349544B096815460A689A4247
S3150FE10F6022D1096946184E4909684A69AF19BA4249
S3150FE10F701AD310B9086900F0FFFEF00AB6EBC020EC
S3150FE10F8004BF304600F0F8FE06F50060C40AE4023D
S3150FE10F9004E0204600F0F0FE04F50064BC42F8D30D
S3150FE10FA02A464146304601E0BDE8F081BDE8F04111
S3150FE10FB000F00CBF7FB5044668460FF2041110220C
S3150FE10FC000F04AFF22686068616B02F16042B2F19C
S3150FE10FD0011F2AD2324D2A681269904225D3334B2B
S3150FE10FE0984222D202F1400081420E4601D3994244
S3150FE10FF005D30020C046401E8041C00F1CE00020F3
S3150FE11000C046A0B900F056F8A8B9706998B10228A0
S3150FE110100DD12868B1690069091D4FF0FF32091A30
S3150FE11020FFF7DEFC2249884205D0002004E0204686
S3150FE1103000F004F800E0012004B070BD50B59FB098
S3150FE11040044668460FF28801102200F005FF666B31
S3150FE1105000F030F818B97069012808D1B66910485F
S3150FE1106000680069864202D3B6F5002F01D9002048
S3150FE1107013E004A800F01BFF321B214604A800F081
S3150FE1108020FF04A800F01FFF06F12002314604A855
S3150FE1109000F01CFF401E8041C00F1FB050BD000085
S3150FE110A02808E10F2800E10FAD1007B00100080095
S3150FE110B0E320BBDE10226946304600F03DBF00005B
S3150FE110C013B779FAC925DDB7ADF3CFE0F1B614B8A9
S3150FE110D013B779FAC925DDB7ADF3CFE0F1B614B899
S3150FE110E080B5FFF717FD0620FFF7DEFCBDE80140EF
S3150FE110F0FFF722BD38B5FFF70DFD9F20FFF7D4FCB3
S3150FE11100FFF7F0FC0446FFF7F1FC0546FFF714FD88
S3150FE11110012C0AD01F2C3ED0202C4FD09D2C60D015
S3150FE11120C22C15D0EF2C06D072E044F214008542A2
S3150FE111306ED1012032BD43F21200854204D044F252
S3150FE111401400854202D063E0022032BD032032BD96
S3150FE1115042F212002D1A10D06D1E10D06D1E10D056
S3150FE111606D1E12D04FF4A4602D1A10D040F2DF207D
S3150FE111702D1A08D0ED1E0CD04AE0042032BD052011
S3150FE1118032BD062032BD072032BD082032BD09200F
S3150FE1119032BD0A2032BD44F20140854208D044F205
S3150FE111A00150854206D048F20140854204D02FE036
S3150FE111B00B2032BD0C2032BD0D2032BD42F21200A2
S3150FE111C02D1A06D06D1E06D06D1E06D06D1E06D0E9
S3150FE111D01EE00E2032BD0F2032BD102032BD112090
S3150FE111E032BD44F209002D1A08D0ED1F08D06D1E4D
S3150FE111F008D06D1E08D06D1E08D009E0122032BD51
S3150FE11200132032BD142032BD152032BD162032BD5A
S3150FE11210002032BD80B500F0E5F80028FBD1FFF7DD
S3150FE1122069FF401E15284BD8DFE800F00B0E1114AD
S3150FE11230171A1D202326292C2F3235384A3B3E41DA
S3150FE1124044470FF2A03002BD0FF2B43002BD0FF2E8
S3150FE11250CC3002BD0FF2E03002BD0FF2F83002BD25
S3150FE112600FF20C4002BD0FF2244002BD0FF23840DF
S3150FE1127002BD0FF2504002BD0FF2644002BD0FF204
S3150FE112807C4002BD0FF2904002BD0FF2A84002BDB5
S3150FE112900FF2BC4002BD0FF2D44002BD0FF2E8409F
S3150FE112A002BD0FF2005002BD0FF2145002BD0FF254
S3150FE112B02C5002BD0FF2405002BD0FF2585002BD45
S3150FE112C0002002BD10B5044600F08CF80028FBD1D2
S3150FE112D014B9FFF70FFF05E02078010002D1FFF700
S3150FE112E009FF2070401E152824D8DFE800F01A14F4
S3150FE112F01A14171A1A1D1D20171A1714171A1D0B70
S3150FE113000E1114174FF4004010BD4FF4803010BD8D
S3150FE113104FF4003010BD4FF4802010BD4FF4002084
S3150FE1132010BD4FF4801010BD4FF4001010BD4FF4F7
S3150FE11330000010BD002010BD10B50C18B4F5802FBC
S3150FE1134001D8012010BD1046FFF7BCFFA042804136
S3150FE11350C043C00F10BD10B50C46FFF7A5FB2046E5
S3150FE11360BDE81040FFF7A2BB38B504460D4600F0C5
S3150FE1137039F80028FBD1FFF7B3FEFFF7CBFB294680
S3150FE113802046FFF7E8FFBDE83140FFF7D5BB10B5C3
S3150FE11390FFF748FB00F001FE42F210742046FFF71B
S3150FE113A02DFBFFF7B7FBAB20FFF77EFBFFF7C4FB88
S3150FE113B02046FFF723FBFFF79DFE10B940F2011020
S3150FE113C010BD0B3802280BD2FFF78AFEFFF7A2FBFF
S3150FE113D00120FFF769FB0020FFF766FBFFF7ACFB88
S3150FE113E0002010BD10B5FFF795FB0520FFF75CFB5D
S3150FE113F0FFF778FB0446FFF79FFB04F0010010BDF2
S3150FE1140070B50D4600F073F810B940F2024070BDA9
S3150FE11410FFF7E8FF0028FBD1FFF77CFB214603200E
S3150FE11420FFF799FF03E0FFF75DFB05F8010B304688
S3150FE11430461E0028F7D1FFF77FFB002070BD2DE98F
S3150FE11440F84F894600F053F810B940F202402BE00D
S3150FE114503746FFF7C7FF0028FBD1FFF75BFB2146B6
S3150FE114600320FFF778FF3846471E30B1FFF73AFB07
S3150FE11470FF28F8D040F2034016E0FFF75DFB2006A8
S3150FE1148040F201174FF4807809D0200A000200F5E7
S3150FE1149080703119814204D3051BADB202E0BE4221
S3150FE114A004D235461EB90020BDE8F28F4546AB465C
S3150FE114B0CA46FFF797FF0028FBD1FFF711FEFFF7AB
S3150FE114C029FB21460220FFF746FF03E01AF8010B3D
S3150FE114D0FFF7EAFA5FEA0B00ABF1010BF6D1FFF783
S3150FE114E02BFB761B2C19BE42A944DFD2D9E7164650
S3150FE114F00446002231461FE72DE9F8430446002052
S3150FE115008DF800000D466846FFF7DCFE9DF80010EA
S3150FE115108046A1F10E0240F6FF764FF6FF70042AE0
S3150FE115204FF48037814638BF064607D3A1F1120043
S3150FE1153002283CBF4FF4004747F6FF7935420CBF0F
S3150FE11540344240F204403AD16A4629462046FFF733
S3150FE11550F3FE10B940F2024031E0BCB9454515D171
S3150FE11560FFF740FF0028FBD1FFF7BAFDFFF7D2FAED
S3150FE11570C720FFF799FAFFF7DFFA1FE02146202090
S3150FE11580FFF7F2FE04F58054A5F58055002D18BF3F
S3150FE1159014EA090FF2D1BD420ED32146D820FFF747
S3150FE115A0E3FE3C19ED1BF6E721462020FFF7DCFEB3
S3150FE115B004F58054A5F58055002DF5D10020BDE841
S3150FE115C0F28380B5FFF70EFF0028FBD1FFF7A2FAF2
S3150FE115D0B920FFF769FAFFF7AFFAC046C046002018
S3150FE115E002BD0000010203009A010000003C000069
S3150FE115F000100000000010007408E10F0100000068
S3150FE11600010203009A01000000080000001000002B
S3150FE11610000004008008E10F010000000102030051
S3150FE116209A010000001800000010000000001000F1
S3150FE116308C08E10F01000000010203009A0100008E
S3150FE11640340F000000100000000004009808E10FBD
S3150FE1165001000000010203009A010000001E0000D4
S3150FE116600010000000000800A408E10F01000000CF
S3150FE11670010203009A010000003C00000010000087
S3150FE1168000001000B008E10F0100000001020300A5
S3150FE116909A01000000780000001000000000100021
S3150FE116A0BC08E10F01000000010203009A010000EE
S3150FE116B0007800000010000000002000C808E10FCC
S3150FE116C001000000010203009A0100000050000032
S3150FE116D00010000000002000D408E10F0100000017
S3150FE116E0010203009A01000000C003000010000090
S3150FE116F000008000E008E10F010000000102030095
S3150FE117009A010000001C0000001000000000080014
S3150FE11710EC08E10F01000000010203009A0100004D
S3150FE11720007000000010000000001000F808E10F43
S3150FE1173001000000010203009A01000000300000E1
S3150FE1174000100000000008000409E10F010000008D
S3150FE1175001020300000C0000001800000000010068
S3150FE11760000004001009E10F01000000010203006F
S3150FE11770000C000000280000000001000000080036
S3150FE117801809E10F0100000001020300000C00003F
S3150FE117900050000000000100000010002009E10FD9
S3150FE117A001000000010203009A010000000200009F
S3150FE117B000100000008000002809E10F0100000081
S3150FE117C0010203009A01000000040000001000006E
S3150FE117D0000001003409E10F0100000001020300DE
S3150FE117E09A01000000060000001000000000020050
S3150FE117F04009E10F01000000010203009A01000018
S3150FE118000008000000100000000004004C09E10F81
S3150FE1181001000000010203009A010000000C000024
S3150FE1182000100000000008005809E10F0100000058
S3150FE118302DE9F04399B000F0E4F86846142100F081
S3150FE11840ADFB684600F016F9039802284FF0FF3812
S3150FE1185009D2002020600120A8423CBF44F8208035
S3150FE11860401CF9D35CE0A84238BF40F2045058D38C
S3150FE11870FFF7F2FA07460498C068C6190C2205A9C4
S3150FE118803846FFF7BDFD00284BD10598DFF860918B
S3150FE1189048451FD00C2205A93046FFF7B1FD0028B8
S3150FE118A03FD10598484507D00020A8423CBF44F8F0
S3150FE118B02080401CF9D31DE0079A05A93046FFF7B2
S3150FE118C09FFD00F099F860BB079A05A93846FFF727
S3150FE118D0B6FD30BB079A05A93846FFF791FD079983
S3150FE118E0424605A8FFF77CF84249884205D0002019
S3150FE118F000F01AF840F2055013E007981038800807
S3150FE11900A84288BF2846002106E005AA02EB81021C
S3150FE11910D26844F82120491C8142F6D300F004F83D
S3150FE11920002019B0BDE8F08302E044F82080401CA6
S3150FE11930A842FAD37047F0B599B000F062F82C4897
S3150FE11940059014210120069050200790684600F07B
S3150FE1195025FB684600F08EF80398A84207D30228C4
S3150FE119600AD22068002818BF10F1010F02D040F209
S3150FE1197004503AE0002038E00020C04606460498BD
S3150FE11980C0688719112D28BF1025002006E005AA8A
S3150FE1199054F8201002EB8002401CD160A842F6D326
S3150FE119A04FF0FF3004E005A901EB85016D1CC8601E
S3150FE119B0102DF8D302464C2105A8FFF711F8C043C5
S3150FE119C0189000F019F880B9502205A93846FFF7AB
S3150FE119D036FD50B90498C1683046FFF78DFD20B941
S3150FE119E0502205A93046FFF72AFD19B0F0BD0000D8
S3150FE119F039528FE1E320BBDE0498C1683846FFF721
S3150FE11A007BBD04460D4605A8502100F0C7BA30B597
S3150FE11A1095B004466846142100F0C0FA684600F016
S3150FE11A2029F8039D022D20D3294605A8FFF700FFCC
S3150FE11A3000281CBF40F20551884218D1002005A9A4
S3150FE11A4000E0401CA84210D251F8202012F1010FFC
S3150FE11A5006D141F82040294605A8FFF76CFF06E0BD
S3150FE11A60A242EED140F2035001E040F2025015B02E
S3150FE11A7030BDFEE710B504000CD04FF48030206086
S3150FE11A80002060609448017821724068E060FFF7BA
S3150FE11A90C1FB206110BD70B504464FF4B87026182E
S3150FE11AA00D46A2B0B1683068802301AA00F023F891
S3150FE11AB00095802301AA214604F1240000F0BCFB26
S3150FE11AC0F060B0688030B06022B070BD10B540F202
S3150FE11AD0014231B1804B5C68A04204D3002008601B
S3150FE11AE04860104610BD03EBC00082680A60C0680B
S3150FE11AF04860002010BD38B500F021F800D325E08D
S3150FE11B0000F017F800D224E080682018BDE83840CD
S3150FE11B10FFF776BC38B500F012F800D316E000F007
S3150FE11B2008F800D215E080682018BDE83840FFF7C5
S3150FE11B3086BC03EBC0001519C368AB4270470C4670
S3150FE11B4011461A46644B5D68A842704740F2014060
S3150FE11B5032BD40F2024032BD5F494A68904202D33C
S3150FE11B6040F20140704701EBC000C1688068FFF7A2
S3150FE11B70C3BC30B504460D4683B01146284600F086
S3150FE11B8047FF50B969462046FFF7A0FF4FF4B870FB
S3150FE11B90284404600199416000203EBD7FB50446AB
S3150FE11BA00D460FF26C100FC86E4686E80F000295D0
S3150FE11BB04FF4BA702518A86888B968682968884209
S3150FE11BC00DD269462046FFF766FFA86800281CBFBD
S3150FE11BD041F2070188420CD140F2012009E0A01C35
S3150FE11BE0017800291DBF4078002840F2032040F21A
S3150FE11BF0022004B070BD012018707047F0B585B0B2
S3150FE11C00044600208DF800000D4616460FF210101F
S3150FE11C100FC801AF87E80F00CDF804D00020306080
S3150FE11C201C21284600F0BAF94FF4BA70271803E0E1
S3150FE11C3001A92046FFF72FFF9DF8000028B9B868E4
S3150FE11C4018B9786839688842F2D3207808B16068A4
S3150FE11C503060607828B11C2204F10801284600F0B3
S3150FE11C60FBF8002005B0F0BD70B504464FF4827065
S3150FE11C700D46221804F1BC0104F1240000F094FA98
S3150FE11C804FF4BA70261803E029462046FFF703FF03
S3150FE11C90B06818B9706831688842F5D3A01C01782D
S3150FE11CA000291CBF4078002801D0012070BD00201B
S3150FE11CB070BD10B5094AE4B0126892688A4202D241
S3150FE11CC000F01BF808B1002003E00FF2640000F00A
S3150FE11CD018F864B010BD00006409E10F2808E10FA0
S3150FE11CE010B5E4B000F009F808B1002003E00FF2F7
S3150FE11CF0500000F006F864B010BD4FF4C07204A9AD
S3150FE11D0037E70FC86C4684E80F00694604A8ABE7CE
S3150FE11D1000000000000000000000000000000000CD
S3150FE11D2000000000F71BE10FF71BE10FF71BE10FB7
S3150FE11D300000000000000000000000004F0FE10F5F
S3150FE11D4000000000010FE10F00000000000000009D
S3150FE11D50084841F67131816301684908490001601C
S3150FE11D607047044801684908490001600021816311
S3150FE11D707047000008000E4010B50446FFF7E8FF74
S3150FE11D80204600F006FF0446FFF7EBFF601E804199
S3150FE11D90C00F10BD10B58408800782B005D50804C1
S3150FE11DA040F47F4040F0FF0003E041F07F4040F414
S3150FE11DB07F000090FFF7CCFF04226946A00000F0F8
S3150FE11DC021FF0446FFF7CDFF204616BD2DE9F04171
S3150FE11DD004460E46154604F0010005F001010843DD
S3150FE11DE027D125B3A00708D536F8021B2046FFF702
S3150FE11DF0D1FFF0B9A41CAD1E19D0AF08FFF7A8FFAC
S3150FE11E00BF003A463146204600F0FCFE8046FFF71A
S3150FE11E10A8FF3C197808B8F1000F06EB400608D188
S3150FE11E20E81B04D031882046FFF7B4FF08B901203B
S3150FE11E3000E00020BDE8F08162B38B0708D0521EA7
S3150FE11E4011F8013B00F8013B00F024808B07F6D136
S3150FE11E50830740F0208000BF103A07D330B4B1E8D2
S3150FE11E603810103AA0E83810F9D230BC530724BF26
S3150FE11E70B1E80810A0E8081044BF51F8043B40F858
S3150FE11E80043BD20724BF31F8022B20F8022B44BFC3
S3150FE11E900B7803707047083A07D3B1E80810083A90
S3150FE11EA040F8043B40F804CBF7D25307E4E710B50B
S3150FE11EB0044600F0F9FE2046BDE81040002100F08F
S3150FE11EC0F6BE00F05CBF014600F090BF70B50400AE
S3150FE11ED00D4618BF002DA2B0164600D016B940F236
S3150FE11EE0016023E001211248FEF73EFE402111A8D1
S3150FE11EF000F054F801F014F8014611A801F089FA3F
S3150FE11F0001F010F8014619A801F083FA294601A854
S3150FE11F1001F07FFA314609A801F07BFA01A800909A
S3150FE11F2011AB20222146034801F082FA22B070BD9F
S3150FE11F300005080000000F400300002013F0030F17
S3150FE11F4009D0521E22BF13F8010B11F801CBB0EBEA
S3150FE11F500C00F3D07047121F22BF53F8040B51F850
S3150FE11F6004CB6045F7D0121D0AD200BA9CFA8CFC5D
S3150FE11F70B0EB0C0038BF6FF0000088BF012070474F
S3150FE11F80521E22BF13F8010B11F801CBB0EB0C0077
S3150FE11F90F6D0521C08BF104670477047002201F079
S3150FE11FA0A5BBFEE730B59A423FBF9C1A456C2C198B
S3150FE11FB0412C01D3002030BD846C456C2C1904F003
S3150FE11FC03F0404448D5C2571521C446C641C9A4297
S3150FE11FD04464F1D3012030BD70B5059D00240CE0BA
S3150FE11FE0866C064436790E55641C866C761C06F0B3
S3150FE11FF03F068664466C761E4664466C0EB1AC426D
S3150FE12000EED3049805E0965D0E55641C1E68761CAA
S3150FE120101E601E68864238BFAC42F4D3AC4201D192
S3150FE12020012070BD002070BD406C081870472DE986
S3150FE12030F0431646044683B030680F4699460B9D2A
S3150FE12040A9EB000100F0C5FCA84208D232684B4665
S3150FE1205039462046FFF7A6FF68B1002038E0DDF8E4
S3150FE1206028800195CDF8009033463A464146204601
S3150FE12070FFF7B2FF20B91020207041F2020027E0EE
S3150FE1208004F1900729463A684046FEF7A9FC386005
S3150FE120900C9820B1206D2A464146FFF712FF0D98A5
S3150FE120A038B1787978B1E06C2B464246414601F07A
S3150FE120B055FB787938B1206EE16D28182066884294
S3150FE120C024BF00207871A06D2818A06541F20300A6
S3150FE120D0BDE8FE832DE9F041074607F1950486B089
S3150FE120E0A078002814BF042508250020039002904C
S3150FE120F0019504A8009041F203083846FFF797FFD0
S3150FE12100404549D120784C3738B100F048F8386866
S3150FE121102B4604AA04A901F021FB0C9EA17804A881
S3150FE1212071B141789DF8102042EA012149BA89B28D
S3150FE121303160C178807840EA012040BA80B218E078
S3150FE121408278C178120442EA0161427841EA0221BA
S3150FE121509DF81020114331609DF816209DF8171058
S3150FE121600079120442EA01619DF8152041EA022144
S3150FE1217008437060207850B93068DFF8E01788427D
S3150FE121801CBFDFF8DC17884201D000F008F8706851
S3150FE12190B8600020F860404606B0BDE8F081786887
S3150FE121A02A4604A9FFF78DBE70B5044600202070BC
S3150FE121B06064A0640D4604F1900000210171417144
S3150FE121C08171C17116464FF0FF31016000206066E3
S3150FE121D0A066E066FF22182104F1700001F0CEFA45
S3150FE121E0FF22042104F1880001F0C8FAFF2204213D
S3150FE121F004F18C0001F0C2FAE56426650020C046C1
S3150FE1220040B10020C04610B90020C04610B11020E1
S3150FE12210207007E00020C04600B11DB10020C04686
S3150FE1222018B116B941F20B0070BD16B1206DFFF76B
S3150FE122303EFE002070BD00002DE9F24F98B0044636
S3150FE122400020049008A8229F079091469A4641F2F2
S3150FE12250030808AD14E000F0CEFB404555D100F080
S3150FE12260A1FB41EA000600F0A8FB00B136BA606DAA
S3150FE12270052828BF6666A06D0428ECD309202070D7
S3150FE122800498504580F0658320781028F8D8DFE868
S3150FE1229010F013003900F5004501C301F801A7015C
S3150FE122A0F8011200F8011200BC025D031B033303B0
S3150FE122B038035D03E4E7DEE70020C04650B199F845
S3150FE122C0010099F8001051EA002003D104F19001C1
S3150FE122D00120C87100F075FB404516D10698DFF86D
S3150FE122E0841660650020A0650598884208BF022024
S3150FE122F0C5D0002840F0B88100F05FFB002841D03F
S3150FE123000320BCE700F05DFB404540F0238304F179
S3150FE123109000807920B10598DFF84416884240E0B5
S3150FE1232004F19000007900283DD004F19000407946
S3150FE12330C8BB0598DFF82C1688421CBFDFF82816B4
S3150FE1234088421FD0DFF8241688421CBFDFF820161B
S3150FE12350884217D0DFF80416884200F08180DFF853
S3150FE123601416884213D0DFF8101688420DD0DFF825
S3150FE12370F015884212D0DFF8041688421CBFDFF849
S3150FE123800016884200F0708140E00D2077E70E20BD
S3150FE123902070606DE0650020206671E70020C04681
S3150FE123A000285BD12BE000F008FB0028059830D020
S3150FE123B040F2FE21401A24D04FF20A31401A08D0DA
S3150FE123C040F2FC51401A0ED0FF3807D0FE3818D034
S3150FE123D01CE0DFF89C050590072050E7DFF89C0528
S3150FE123E005900A204BE7DFF8780505900020C046F7
S3150FE123F0002802BF04F19000407900282ED10B206E
S3150FE124003DE7DFF87C050590082038E710202070BE
S3150FE1241031E0DFF8541588421AD0DFF850158842BB
S3150FE1242014D0DFF84C158842D6D0DFF83015884244
S3150FE1243010D0DFF82C158842D8D0DFF84015884246
S3150FE12440CFD0DFF83C158842DED00BE0042016E74B
S3150FE12450062014E704F190004079002840F004814A
S3150FE124600F200CE71020207004F19000407910B195
S3150FE1247041F204006EE241F208006BE2A06D08281A
S3150FE1248080F0628200F0B0FA082000F086FA00F0E0
S3150FE12490A8FA4045F1D1E8780006B0F1407F54D172
S3150FE124A06879297941EA0026F00704D504F190010C
S3150FE124B00120087102E00020C04628B90020C0467D
S3150FE124C00028DBD0F005D9D41020207041F20A00A4
S3150FE124D040E2E878A97841EA002040BA80B24EF2AC
S3150FE124E050318842BAD1A979E879090441EA006005
S3150FE124F0697940EA01202979084300BA6066A97A29
S3150FE12500E87A090441EA0060697A40EA0120297A0A
S3150FE12510084300BAA0664FF0FF30E066A06D0C28C5
S3150FE1252039D200F061FA0C2000F037FA00F059FACF
S3150FE1253040450ED168789DF8201041EA002040BA57
S3150FE1254000F47F40B0F5007FC3D01020207041F238
S3150FE125500900FFE1E16EFF20FEF730FA0146E16681
S3150FE12560FF20FEF72BFAE0660146A878FEF726FA7A
S3150FE12570E0660146E878FEF721FAE066D7F804C08F
S3150FE12580BCF1000F07D03B68606E042208A9E04753
S3150FE12590606E001D6066A06D616D884216D204986B
S3150FE125A0AAEB000100F015FA0428C0F00581A06D31
S3150FE125B0A0F10C0600F01FFA4045CAD1102EC9D082
S3150FE125C0E26E042108A8FEF70BFAD6E7A16EE06EDC
S3150FE125D0C943884240F02781189901204870B3E139
S3150FE125E0606DA16D8142FAD20190012108A8039194
S3150FE125F002910090534604AA00F0F2F9404537D113
S3150FE1260018981C2208A90830FFF726FC1899012013
S3150FE126104870E5E705202070A06D0828BFF430AEBD
S3150FE126200120039002905346082000F0D5F940456A
S3150FE126301ED11899D34A0120087000F0B3F9084367
S3150FE1264018994860D048006801689142E2D1AA79A9
S3150FE12650E979C068120442EA01616A7941EA022125
S3150FE126602A7911438142D5D01020207041F2010021
S3150FE1267070E13B68A06E324608A9E047A06E3018BC
S3150FE12680A066606DA16D8142A9D2461A0498042E07
S3150FE12690AAEB00012046C0F08A80FFF7C5FC0428AB
S3150FE126A0C0F08A800498AAEB00000090412E014603
S3150FE126B028BF402600F08DF9B04203D2009900F011
S3150FE126C088F90646042E24BFB608B600012003900A
S3150FE126D00290019608A80090534604AA00F080F9EB
S3150FE126E04045C5D12078072804D1D7F808C0BCF1F9
S3150FE126F0000FBED1C6F10400042E009007D20146A9
S3150FE1270008A8FF22801901F039F800988619207878
S3150FE12710092858D17968002955D0FEF7BFFA616EBD
S3150FE12720001D7218824221D300F1180399421DD27E
S3150FE127308346884238BF8B469A4288BF1A46019232
S3150FE12740ABEB010108AA11440091ABEB0000019933
S3150FE12750A1EB0B02009920447030FFF76DFB019856
S3150FE12760A0EB0B010098FF2201F008F8FEF79AFAA9
S3150FE12770616E001D884222BF7218031D9A420BD368
S3150FE12780079A8018A0EB010B0422594604F1880041
S3150FE12790FFF752FB00F0FCF83B68606ED7F804C018
S3150FE127A0324608A9E047606E3018606669E7FFF7C1
S3150FE127B03BFCB042BFF476AF049A534649462046F6
S3150FE127C0FFF7F0FBC5E00528F0D1F8680028EDD05A
S3150FE127D0E06E05280ED2311807290BD30799091D8B
S3150FE127E0A1EB000B0422594604F18C00FFF724FB01
S3150FE127F000F0CEF83B68E06ED7F80CC0324608A978
S3150FE12800E047E06E3018E0663BE700200390029068
S3150FE128105346042000F0E0F8404508D1D4F8900083
S3150FE128205A49884204D01020207041F2050091E008
S3150FE128300020C04618B918990120C87003E018980E
S3150FE12840C07800283AD0E06E90B100F0B6F878B9CA
S3150FE12850D7F80C905FEA09000AD0042204F18C0143
S3150FE1286008A8FFF7E9FA3B68042208A90420C8473C
S3150FE12870606E00281CBF786800281FD0182204F16B
S3150FE12880700108A8FFF7D8FAFEF708FA3B68D7F800
S3150FE128900490182208A9001DC847FEF703FA0500A0
S3150FE128A00CD0042204F1880108A8FFF7C5FA3B68AA
S3150FE128B0D7F80490042208A9281DC84718990120C2
S3150FE128C088700C20207044E0A06D10283CD200F0F7
S3150FE128D08BF8102000F061F800F083F8404539D10C
S3150FE128E000F022FB8021009001910123E06C09AAFF
S3150FE128F0022100F014FFE7E704F19001012048718E
S3150FE1290022E004F190008079F0B9039002905346EA
S3150FE12910402000F061F840451CD1206DFFF7D3FA56
S3150FE12920206D10AA08A9FFF7D1FA38B1189900203E
S3150FE12930C8701020207041F206000BE018990120B3
S3150FE12940C87004F190018871012098E441F2070003
S3150FE1295000E0002019B0BDE8F08F0000F70A0AF792
S3150FE12960FC0404FCEB17A603F40A0AF4F50909F5CE
S3150FE12970F60808F6F90707F9FA0606FAFD0303FD65
S3150FE12980FE0101FEAD1007B02800E10FE320BBDE2B
S3150FE12990FF220421584600F0F1BE0190494608A8EE
S3150FE129A000907047A978E878090441EA00606978F0
S3150FE129B040EA01209DF82010704704F19000C0799C
S3150FE129C0704705A80090534604AA49462046FFF7EB
S3150FE129D081BB2046FFF728BB019004AA08A8009007
S3150FE129E049462046FFF723BB0020039053460120BB
S3150FE129F0029004AA704701200390029053460420E7
S3150FE12A00019004AA08A8009049462046FFF70FBB9C
S3150FE12A1010B5B1F5C07F044602D240F2052010BDD4
S3150FE12A204FF4C071FFF7BAFA4FF48270221804F12E
S3150FE12A30BC0104F12400BDE81040FFF7B5BB10B5AA
S3150FE12A4082B00446009104F124002146FFF7F4FB1E
S3150FE12A5000281CBF41F207018842C4F87C010CD162
S3150FE12A60A01C017839B1407810B140F2032016BDB0
S3150FE12A7040F2022016BD40F2012016BD6449654AB7
S3150FE12A8001E021B1491E1369DB07FAD401B9B0E0C0
S3150FE12A90506001201060106910F0060F05D0410754
S3150FE12AA000D5A9E0800700D5A9E000207047F0B571
S3150FE12AB013460022002936D0554C564D8BB98B4221
S3150FE12AC031D250F8046BEE605B1C08262E60264669
S3150FE12AD001E036B3761E2F69FF07FAD4002EEED149
S3150FE12AE01FE0EFF3108672B600230EE02F6907F0B1
S3150FE12AF01907102F08BF2F602F693F07F6D550F83A
S3150FE12B00047BEF605B1C10272F608B42F4D306B971
S3150FE12B1062B6264601E026B1761E2869C007FAD4C9
S3150FE12B200EB96FF002021046F0BD2DE9F0479A4655
S3150FE12B30354B364F1C681B683B688046002043F0D7
S3150FE12B4001033B60950881460C4602E0B14404EB74
S3150FE12B508604A94517D208EB89063046FFF78EFFA3
S3150FE12B60010014D1C6F30A00C0F500608608A5EB93
S3150FE12B700900B04238BF0646524631462046FFF7B6
S3150FE12B8096FF0100E2D03968490849003960BDE88E
S3150FE12B90F0871D491E4A0B6809681C490B6843F00B
S3150FE12BA001030B608860012048604869400704D53E
S3150FE12BB008684008400008601EE04869800704D5B0
S3150FE12BC0086840084000086019E00220486001E00B
S3150FE12BD022B1521E4869C007FAD422B908684008E3
S3150FE12BE04000086005E008684008400008600020E2
S3150FE12BF070476FF0020070474FF0FF3070476FF08C
S3150FE12C0001007047002390E704300E4008000E40A4
S3150FE12C10809698000C000E4010B54A688B68CC6818
S3150FE12C200968016002600360046010BD10B50268B7
S3150FE12C300368046800680A608C604B60C86010BD69
S3150FE12C4038B504460D46FFF7F1FF05F110012046B1
S3150FE12C50BDE83440EAE738B504460D46FFF7DCFF39
S3150FE12C6005F110012046FFF7D7FF05F120012046B8
S3150FE12C70FFF7D2FF05F130012046BDE83440CBE73F
S3150FE12C8010B50C4614F0030188B008D06946FFF77A
S3150FE12C90D7FF202269462046FFF7CEF802E021460C
S3150FE12CA0FFF7CEFF08B010BD6C21FFF777B979B901
S3150FE12CB0734A0260734A4260734A8260734AC26022
S3150FE12CC0734A0261734A4261734A8261734A0EE043
S3150FE12CD0734A0260734A4260734A8260734AC26002
S3150FE12CE0734A0261734A4261734A8261734AC261EE
S3150FE12CF08166002202624262002070472DE9F041AF
S3150FE12D006F4E90B0044630686E4FDFF8BC8140F0ED
S3150FE12D10010030600D466D486D490160416821F44F
S3150FE12D2040614160102101630021416369490165F9
S3150FE12D306949416538462146FFF76EFF04F11001F7
S3150FE12D403846FFF769FF15F0030009D040222946FF
S3150FE12D506846FFF771F869464046FFF77CFF03E0E7
S3150FE12D6029464046FFF777FF21463846FFF768FFCA
S3150FE12D70306840084000306010B0BDE8F0812DE9C1
S3150FE12D80F041160004460D462ED0206A00F03F07AB
S3150FE12D903018B042C7F14008206202D2606A401C87
S3150FE12DA06062B7B1464514D3E01942462830FFF7C2
S3150FE12DB043F804F128012046FFF7A0FF4544A6EBAF
S3150FE12DC00806002705E029462046FFF797FF40351D
S3150FE12DD0403E402EF7D23EB132462946E019BDE8D4
S3150FE12DE0F0412830FFF728B8BDE8F0817CB50446FD
S3150FE12DF00D46616A206A324EC90041EA50718DF87B
S3150FE12E000310C0000B0C8DF801300A0E0B0A010EF0
S3150FE12E108DF804108DF80700010C8DF805108DF86B
S3150FE12E200020010A8DF802308DF8061094F8200083
S3150FE12E300FF2AC0100F03F00382834BFC0F1380281
S3150FE12E40C0F178022046FFF79AFF0822694620462D
S3150FE12E50FFF795FF306840F00100306029461F48C3
S3150FE12E60FFF70EFF3068400840003060A06E20B1DA
S3150FE12E70042105F11C0000F0B5FC73BD0000000054
S3150FE12E8067E6096A85AE67BB72F36E3C3AF54FA505
S3150FE12E907F520E518C68059BABD9831F19CDE05B31
S3150FE12EA0D89E05C107D57C3617DD703039590EF737
S3150FE12EB0310BC0FF11155868A78FF964A44FFABEFD
S3150FE12EC0B0400E4000010F40A4010F4000000F403B
S3150FE12ED0040010307081C872070D010030010F40F8
S3150FE12EE0800000000000000000000000000000006C
S3150FE12EF000000000000000000000000000000000DC
S3150FE12F0000000000000000000000000000000000CB
S3150FE12F1000000000000000000000000000000000BB
S3150FE12F200248704702487047024870474A43E00F2C
S3150FE12F306A43E00F8642E00F10B54A688B68CC68AA
S3150FE12F400968016002600360046010BD10B5026894
S3150FE12F500368046800680A608C604B60C86010BD46
S3150FE12F6038B504460D46FFF7E7FF05F11001204698
S3150FE12F70BDE83440E0E738B504460D46FFF7E6FF16
S3150FE12F8005F110012046BDE83440DFE78C220FF250
S3150FE12F90D06150430844007A70478C220FF2C0612A
S3150FE12FA050430844407A704710B500F010F8BDE879
S3150FE12FB0104000F10C0106E010B500F008F8BDE88D
S3150FE12FC0104000F12C0120221846FEF735BF0B46C3
S3150FE12FD08C240FF28C6160430844704738B5044680
S3150FE12FE04FF48470154600F03EF94FF4867029468A
S3150FE12FF000F039F9DFF8CC052065012060656069DD
S3150FE13000000E00F0010080F0010032BD2DE9F0471E
S3150FE1301000F0EFF888B091469A4608F1400100F0CA
S3150FE13020E6F84FF486702518494600F0DBF84FF4C1
S3150FE130308870261809F120013046FFF791FFDFF876
S3150FE1304088052065414600F0DCF900F0CDF84FF434
S3150FE13050847004EB000908F120014846FFF780FF71
S3150FE1306008F140013046FFF77BFFDFF86005206589
S3150FE130700AF14001DFF8580560650120A0654FF4BC
S3150FE13080807026183046FFF776FF69464846FFF708
S3150FE1309072FF00F0A6F8DFF83C05206508F1200184
S3150FE130A0DFF834056065DFF8340500F09DF8DFF8E9
S3150FE130B0300520655146DFF82C0560650120A065D6
S3150FE130C04846FFF758FF69463846FFF749FFDFF8ED
S3150FE130D0180520650AF12001DFF81005606501206A
S3150FE130E0A0653046FFF747FF08B0BDE8F0872DE949
S3150FE130F0F04700F07EF898B0914608F1200100F014
S3150FE1310076F8DFF8C404206508A9DFF8E404606502
S3150FE13110DFF8E004A06500F09BFA00F062F8DFF853
S3150FE13120D804206510A9DFF8D40460654FF48670E2
S3150FE13130A06526183046FFF71EFF694600F08BFAA9
S3150FE1314008F1400100F053F8DFF8B4042065414679
S3150FE13150012060654FF4847004EB000A00F07EFAFB
S3150FE13160DFF8A00420656946DFF89C046065DFF8A7
S3150FE131709C04A0650120E0655046FFF7F1FE10A91A
S3150FE131803046FFF7EDFEDFF8880420654946DFF8A4
S3150FE1319084046065DFF88004A0654FF488702044ED
S3150FE131A0FFF7E9FE08F1200100F021F808F14001EF
S3150FE131B000F054FA08A93046FFF7D2FEDFF85C04B7
S3150FE131C0206509F14001DFF8580460652846FFF7ED
S3150FE131D0D2FE09F120013046FFF7CDFE18B0BDE86A
S3150FE131E0F08741462846BBE6A0650120E0653846F3
S3150FE131F0B6E604464FF48270884627187047F8B54D
S3150FE1320004460E461D46174620212846FEF7C6FE02
S3150FE132100120286039464FF4807000F024F84FF40E
S3150FE132208270314600F01FF84FF484702618294654
S3150FE132303046FFF795FEDFF8EC0320650BE0DFF88C
S3150FE13240E8032065DFF8E4036065DFF8E403A065D2
S3150FE13250DFF8E003E0656069C001F0D52946304645
S3150FE13260BDE8F44087E620447AE650F8043B934202
S3150FE1327003D007E050F8042B22B9091F0129F9DA27
S3150FE1328001207047002070472DE9F04188B00446D0
S3150FE132900E461546984620216846FEF77FFE012029
S3150FE132A0009020210E9F3846FEF778FE202107F188
S3150FE132B02000FEF773FE202107F14000FEF76EFEB8
S3150FE132C03046FFF763FE00F0A0F800F095F88C2189
S3150FE132D00FF28C3011FB06F108444068461E00E000
S3150FE132E0761E012E16DB00F03EF8F9D512E020220C
S3150FE132F029463846FEF7B0FD202205F1200107F1F8
S3150FE133002000FEF7A9FD2022694607F14000FEF7EE
S3150FE13310A3FD761E002E23D43A4639462046FFF703
S3150FE13320E6FE00F020F8F4D5002220213846FFF71B
S3150FE133309CFF70B10022202107F12000FFF795FFD6
S3150FE1334038B10022202107F14000FFF78EFF002858
S3150FE13350CDD13B462A4639462046FFF757FED8E7F9
S3150FE1336008B0BDE8F081301106EBD060401158F896
S3150FE133702010A6EB4010C140C8077047F0B50446D0
S3150FE133800F4691B015461E463846FFF7FFFD00F092
S3150FE133903CF800F031F869463846FFF705FE08AB11
S3150FE133A06A4605F140012046FFF729FF4FF4827087
S3150FE133B008A92044FFF7D4FD4FF486702718294654
S3150FE133C0FFF715FF4FF4887005F12001FFF74BFF6B
S3150FE133D07D48206506F1200100F013F8A065012074
S3150FE133E0E0654FF480702044FFF7C5FD314638465E
S3150FE133F0FFF7C1FD11B0F0BD0020206020636063CF
S3150FE1340070478D4860658D4870470146204600F04C
S3150FE13410EDB938B50D4604462021FEF7BFFDFFE7AE
S3150FE134201F204242295C2244401ED177F9D531BD96
S3150FE134302DE9F0470F00984618BFB8F1000FBAB063
S3150FE134400446154603D0429E0EB1012D02DA40F233
S3150FE134500160B4E0FFF7D0FF606840F010006060F4
S3150FE134600020FFF79AFDFFF7D0FF606820F4406078
S3150FE1347040F40060606009A9606820F4407040F490
S3150FE13480007060600020FFF797FD09AA31462046DC
S3150FE13490FFF7A4FD30B909AA06F120012046FFF78F
S3150FE134A09DFD10B140F2026089E0212DA8BF2025D4
S3150FE134B0202111A8FEF772FD002014E02A1A521EF0
S3150FE134C001A99208A5F1010C01EB8201ACEB000C0D
S3150FE134D03B5C0A6C4FEACC0C0CF0180C03FA0CF3BC
S3150FE134E01A430A64401CA842E8DB4FF4847027189C
S3150FE134F011A93846FFF734FD5148206511A900F0AF
S3150FE13500A7F819AB09AA06F120012046FFF777FEC6
S3150FE135104FF4827019A92044FFF722FD4FF488700A
S3150FE1352004EB000911A94846FFF71AFD4FF486701F
S3150FE1353004EB000A00F091F84248206511A94248D0
S3150FE1354060654846FFF717FD19A900F084F821A831
S3150FE13550009011AB0FF2541200212046FFF794FEB3
S3150FE1356001A8009019AB424600212046FFF78CFED9
S3150FE1357021AB21AA00212046FFF700FF01AB21AACB
S3150FE1358001A92046FFF742FD01AB01AA0021204622
S3150FE13590FFF7F4FE0020FFF700FDFFF736FF01A965
S3150FE135A03846FFF7DDFC00F058F82848206521483A
S3150FE135B060656069C0014CBF002040F204603AB01B
S3150FE135C0BDE8F0873035DA108AD11C81D01482CB71
S3150FE135D01481E11C8CE11C811C84D91C8391D11CC3
S3150FE135E0E014D8141482E11C84D31482D11CE014A4
S3150FE135F0821CC00C0C0C0100C00C0C83D91C83D8A7
S3150FE136008AD11C83DA0C811482D11C81C80C0C81FE
S3150FE136108CE11CD01484E31482D11C01D81483D11C
S3150FE136201CC00C0139398401D02484FC1C82FED8DC
S3150FE136308B1C81A039380100D91C83D11C81E11C77
S3150FE1364030D00C0130E11C8430D91C013035DA144D
S3150FE136504FF48070251828468DE4314650467FE4B5
S3150FE136602000000000010000050C0000FFFFFFFF36
S3150FE13670FFFFFFFFFFFFFFFF00000000000000005C
S3150FE136800000000001000000FFFFFFFF512563FC72
S3150FE13690C2CAB9F3849E17A7ADFAE6BCFFFFFFFFD7
S3150FE136A0FFFFFFFF00000000FFFFFFFF96C298D864
S3150FE136B04539A1F4A033EB2D817D0377F240A46365
S3150FE136C0E5E6BCF847422CE1F2D1176BF551BF376E
S3150FE136D06840B6CBCE5E316B5733CE2B169E0F7C41
S3150FE136E04AEBE78E9B7F1AFEE242E34F00B500BF3E
S3150FE136F0130096469446103928BFA0E80C50FAD825
S3150FE137005FEA417C28BF0CC048BF40F8042BC907CC
S3150FE1371028BF20F8022B48BF00F8012B00BDF8B5F2
S3150FE1372005460E4617461C4600F028F9079A0699F4
S3150FE13730284600F026F905F12400002101600675FF
S3150FE137400C22394605F13900FEF776FB05F1450006
S3150FE13750210C01708470210A4170F1BD10B584B05E
S3150FE137601C460191029200F12801009100F1380304
S3150FE1377000F12402214600F04BF91FBD62F30F223F
S3150FE1378062F31F42401810F0030308D0C91A1FD382
S3150FE13790DB0748BF00F8012D28BF20F8022D1300E3
S3150FE137A030B414461546103928BF20E93C00FAD843
S3150FE137B0490728BF20E90C0048BF40F8042D8900CE
S3150FE137C028BF20F8022D48BF00F8012D30BC704705
S3150FE137D0C91818BF00F8012DCB0728BF00F8012D36
S3150FE137E07047FEE70022FFF7CDBFFEE742685209B9
S3150FE137F0042941EA421209D9491F022908D9C91EEA
S3150FE13800032903D9091F022902D97047426070477C
S3150FE1381042F010014160704710B54A688B68CC6879
S3150FE138200968016002600360046010BD10B50268AB
S3150FE138300368046800680A608C604B60C86010BD5D
S3150FE1384038B504460D46FFF7E7FF05F110012046AF
S3150FE13850BDE83440E0E71FB5044611F0030008D098
S3150FE1386010226846FEF7E8FA69462046FFF7D4FFCD
S3150FE138701FBD2046FFF7D0FF1FBD1FB50C4614F045
S3150FE13880030108D06946FFF7D1FF102269462046AA
S3150FE13890FEF7D2FA1FBD2146FFF7C8FF1FBD80B560
S3150FE138A00168802903D0B1F5807F0FD012E0DFF8F0
S3150FE138B04422012111604268DFF83C120A608268F6
S3150FE138C00A60C2680A600069086001E000F026F844
S3150FE138D0002002BD6FF01F0002BD38B50168DFF8A9
S3150FE138E01842DFF81852802903D0B1F5807F0DD049
S3150FE138F011E0DFF800220121116041682160816842
S3150FE139002160C16821600069206001E000F006F8DE
S3150FE13910E562002032BD6FF01F0032BDDFF8E02116
S3150FE1392001211160011DDFF8DC0189E72DE9F0477F
S3150FE139300709DFF8D4411020A062089D099E884649
S3150FE1394091469A4614E02EB127B9102249463046E0
S3150FE13950FEF772FA49464046FFF77DFF4FF40070D6
S3150FE13960206029465046FFF788FF103509F1100907
S3150FE139703846471E0028E6D1BDE8F0872421FEF739
S3150FE139800DBB80B5802A18BFB2F5807F00D0A1E7C5
S3150FE13990FFE740F8042BD208FEF74EFA002002BDEE
S3150FE139A02DE9F843DFF86461DFF86471DFF86491BC
S3150FE139B08046306840F001003060144600203860E0
S3150FE139C07860386301291D46786309D100F01DF847
S3150FE139D04046FFF764FF5FEA00080FD1052008E0D4
S3150FE139E04046FFF77AFF5FEA000807D100F00DF8CE
S3150FE139F00620B86029464846FFF73FFF3068400882
S3150FE13A00400030604046BDE8F2832146484622E752
S3150FE13A102DE9F04F83B08946DDF834A00E9C19F0FD
S3150FE13A200F0F804615461E4604D1002D1CBF286890
S3150FE13A30002828D02F68DDF830B01DE097B95B4636
S3150FE13A40324601214046FFF7ABFF102031183218FD
S3150FE13A5011F8011C491C02F8011CC9B211B9401E2B
S3150FE13A600128F3DA1AF8010B1BF80710484004F89E
S3150FE13A70010B781C00F00F075FEA0900A0F10109BD
S3150FE13A80DCD12F6032E0214D214F286840F0010053
S3150FE13A902860002038607860386378634046FFF726
S3150FE13AA0FEFE5FEA00081CD11249DFF86CB04FF455
S3150FE13AB0404008601249086031465846FFF7CBFE91
S3150FE13AC01748144B15493865524651207865002041
S3150FE13AD0019000944846FFF729FF31465846FFF714
S3150FE13AE0CCFE28684008400028604046BDE8FE8FBE
S3150FE13AF00000000000000F4424000F40058C010078
S3150FE13B0000000F4610010F4008000F40B0400E4075
S3150FE13B1000000F4080000F4084000F4088000F40E7
S3150FE13B20480546030348016841F470010160704797
S3150FE13B300000000088ED00E04EF68851CEF200015C
S3150FE13B40086840F470000860BFF34F8FBFF36F8FC3
S3150FE13B504FF00070E1EE100A7047FEE70120C04614
S3150FE13B60002801D000F008F80020AFF30080FDF740
S3150FE13B70AEF800F015F8FEE710B5074979441831AC
S3150FE13B80064C7C44163404E00A68081D1144884744
S3150FE13B900146A142F8D110BD7C0000008C00000067
S3150FE13BA000F000B80746384600F002F8FBE70000E0
S3150FE13BB02021090326311820ABBEF9E700F04902AF
S3150FE13BC0C0EA2101C0EA210180B5FFF7ABFFFDF79E
S3150FE13BD0B3F8BDE8014000F000B8AFF30080FFF79E
S3150FE13BE0ABFFFFF7BBFF10B450F8041B79B10268C6
S3150FE13BF0436802440830DC0744BFA9F10104E31826
S3150FE13C0052F8044B43F8044B091FF9D1ECE710BC0A
S3150FE13C1070470000D3FFFFFF0C000000A0FFFFFF7E
S3110FE13C2080000020000000000000000002
S7050FE13BDBF4
