S0110000626F6F746C6F616465722E733337B8
S3150FE1080020110020F933E10F7B0FE10F652DE10F89
S3150FE10810830FE10F131CE10F371DE10F00000000FD
S3150FE1082000000000000000004008E10FC72CE10FB7
S3150FE10830CF31E10F000000008F33E10FAB33E10F52
S3150FE1084007B0CD5E0100000000000101442D00005C
S3150FE108500000000000001000F0001000F133E10F7E
S3150FE10860F533E10F592FE10F1734E10F4534E10F5E
S3150FE108700000000001790122091DC01C00F014BA25
S3150FE1088000F0A6B900B5A3B000F038FBB0F5027FD2
S3150FE1089008D168460FF29011882200F043FB6846B3
S3150FE108A0FFF7E8FF68460FF20821882200F03AFBCE
S3150FE108B00549096889680DF1070001606846FFF788
S3150FE108C0D9FF23B000BD00002808E10FADF5267D65
S3150FE108D062A80FF26421882200F024FB0FF2E020D8
S3150FE108E00FC80BAC84E80F0002A8242100F046FBE9
S3150FE108F00FAA2AA93CA800F047FC40F6033408E00A
S3150FE1090001208DF88E010020ADF88F0162A8FFF767
S3150FE10910B1FF882184A800F031FB00F009FA002825
S3150FE10920FBD04FF47A700090012384A801AA01212C
S3150FE10930C01C00F01AFA9DF813022028EDD14FF4EE
S3150FE109407A700090012301AA032185A800F00DFA20
S3150FE1095001980328DDD19DF8145275B140F6B830F0
S3150FE109600090012385A801AA2946C01C00F0FDF9D4
S3150FE109700199A94208BF0028CBD19DF8150200289D
S3150FE10980C7D19DF816029DF817320328C1D8DFE8C3
S3150FE1099000F03703041ABCE7B2E70BA8009086AA6A
S3150FE109A002A93CA800F038FC02218DF88E1100282F
S3150FE109B01CBF41F20701884212BFADF88F410020FB
S3150FE109C0ADF88F01A2E703208DF88E019DF80B108C
S3150FE109D09DF80A0008421ABF0020ADF88F01ADF865
S3150FE109E08F4162A8FFF746FF9DF80A009DF80B10AD
S3150FE109F008409DF8081008428BD040F2092009E023
S3150FE10A009DF80B109DF80A0081F00101084203D011
S3150FE10A1040F2032000F03CFA012B14BF40F2012013
S3150FE10A2040F20220F6E70000000000A002000103F9
S3150FE10A300B000000000000000000000000000000B5
S3150FE10A4000000000000000000000000000000000B0
S3150FE10A5000000000000000000000000000000000A0
S3150FE10A600000000000000000000000000000000090
S3150FE10A700000000000000000000000000000000080
S3150FE10A800000000000000000000000000000000070
S3150FE10A900000000000000000000000000000000060
S3150FE10AA00000000000000000000000000000000050
S3150FE10AB0000000A00400000000000000000000009C
S3150FE10AC00000000000000000000000000000000030
S3150FE10AD00000000000000000000000000000000020
S3150FE10AE00000000000000000000000000000000010
S3150FE10AF00000000000000000000000000000000000
S3150FE10B0000000000000000000000000000000000EF
S3150FE10B1000000000000000000000000000000000DF
S3150FE10B2000000000000000000000000000000000CF
S3150FE10B30000000000000000000000020020000009D
S3150FE10B4000000000000000000000000000000000AF
S3150FE10B50000000000000000000000000000000009F
S3150FE10B60000000000000000000000000000000008F
S3150FE10B70000000000000000000000000000000007F
S3150FE10B80000000000000000000000000000000006F
S3150FE10B90000000000000000000000000000000005F
S3150FE10BA0000000000000000000000000000000004F
S3150FE10BB0000000000000000000000000000000003F
S3150FE10BC000000000A52EE10F00000000F32EE10F5B
S3150FE10BD010B501218348844C00F01AFF01218348A7
S3150FE10BE000F016FF0121824800F012FF0121814832
S3150FE10BF000F00EFF40F6AA60E060002100202060C1
S3150FE10C00606641F205006060A1606161E1647A4965
S3150FE10C10A16400216167A167E167606020682060D8
S3150FE10C207648006801280CBF4FF4957040F27B209F
S3150FE10C30C000606101230422002000F035FF01238B
S3150FE10C4001220121002000F02FFF0020A0670123E0
S3150FE10C500320606704220521002000F025FF05200F
S3150FE10C60E0604FF0E0616648016000210162C16218
S3150FE10C704163C1664FF4402262490A6000228A60ED
S3150FE10C804A600FF2B412920892008A615E4A0A63D1
S3150FE10C9000228A634A6303215C4A11600121C16321
S3150FE10CA002205B49086010BD70B50E46802E0546E1
S3150FE10CB0144602D341F2031070BD00F028F810B9C3
S3150FE10CC041F2062070BD30460026524902E0AA5D88
S3150FE10CD08A55761C8642FAD3D1F88020401E60F3FE
S3150FE10CE00E12C1F8802001F1800080084A49800088
S3150FE10CF008600220494908603CB100F008F8002875
S3150FE10D00FBD0474800688006FBD5002070BD4548FB
S3150FE10D1045498268920702D50220086003E0006820
S3150FE10D20800703D4022088600120704700207047B6
S3150FE10D303E48006840F20111884208BF002007D003
S3150FE10D4040F2022188420EBF4FF480703849401AB3
S3150FE10D5038490968814201D10020704701D2401A12
S3150FE10D607047C1F5007140187047F8B504460E4655
S3150FE10D7015468BB1069F2FB100F0D0FE0021384604
S3150FE10D8000F0EEFEFFF7D4FFB04205D2002FF9D007
S3150FE10D9000F0FCFE0028F5D0FFF7CAFFB04202D201
S3150FE10DA0FFF7C6FF064600201949224A204B03E00A
S3150FE10DB00027176002270F60B0420FD2176813F8AA
S3150FE10DC007C004F800C0401C7F1CB7F5007F176011
S3150FE10DD0EED0B7F5807FEFD10127ECE705B12860BB
S3150FE10DE00020F2BD4041050000000140003508003A
S3150FE10DF00055080000420400F9FF010094400E403F
S3150FE10E0000200E4080200E4001000C0028200E44E9
S3150FE10E1008200E4680000020C8200E403C200E40E0
S3150FE10E201000014020200E4020200E4494200E4059
S3150FE10E302011002028130020F00F10031C000140A1
S3150FE10E40201100201300000009000000000100003E
S3150FE10E500202000013000000F00F10031C00014016
S3150FE10E60201200201300000009000000000200001C
S3150FE10E7001010000D3FFFFFF4FF0005108804FF251
S3150FE10E800F00488070470F494CF23C30088070479D
S3150FE10E904FF0005108804FF20F0048800A48016871
S3150FE10EA021F4E06141F480610160BFF34F8F0748A0
S3150FE10EB0074A016801F4E06111430160BFF34F8F07
S3150FE10EC000BFFDE70200002000500E400CED00E0F0
S3150FE10ED00400FA054FF000504FF20F02418891429C
S3150FE10EE001D100887047002904BF0088012802D18B
S3150FE10EF040F2022070474FF4007070474FF00050F8
S3150FE10F000088704762B38B0708D0521E11F8013B78
S3150FE10F1000F8013B00F024808B07F6D1830740F000
S3150FE10F20208000BF103A07D330B4B1E83810103A39
S3150FE10F30A0E83810F9D230BC530724BFB1E8081046
S3150FE10F40A0E8081044BF51F8043B40F8043BD20730
S3150FE10F5024BF31F8022B20F8022B44BF0B78037024
S3150FE10F607047083A07D3B1E80810083A40F8043B4E
S3150FE10F7040F804CBF7D25307E4E7FEE7002200F08F
S3150FE10F802FBEFEE730B59A423FBF9C1A456C2C192E
S3150FE10F90412C01D3002030BD846C456C2C1904F033
S3150FE10FA03F0404448D5C2571521C446C641C9A42C7
S3150FE10FB04464F1D3012030BD70B5059D00240CE0EA
S3150FE10FC0866C064436790E55641C866C761C06F0E3
S3150FE10FD03F068664466C761E4664466C0EB1AC429D
S3150FE10FE0EED3049805E0965D0E55641C1E68761CDB
S3150FE10FF01E601E68864238BFAC42F4D3AC4201D1C3
S3150FE11000012070BD002070BD406C081870472DE9B6
S3150FE11010F0431646044683B030680F4699460B9D5A
S3150FE11020A9EB000100F0C5FCA84208D232684B4695
S3150FE1103039462046FFF7A6FF68B1002038E0DDF814
S3150FE1104028800195CDF8009033463A464146204631
S3150FE11050FFF7B2FF20B91020207041F2020027E01E
S3150FE1106004F1900729463A68404600F0E5FD3860FD
S3150FE110700C9820B1206D2A46414600F0F5FD0D98FA
S3150FE1108038B1787978B1E06C2B464246414600F0AB
S3150FE110900FFE787938B1206EE16D28182066884207
S3150FE110A024BF00207871A06D2818A06541F20300D6
S3150FE110B0BDE8FE832DE9F041074607F1950486B0B9
S3150FE110C0A078002814BF042508250020039002907C
S3150FE110D0019504A8009041F203083846FFF797FF00
S3150FE110E0404549D120784C3738B100F048F8386897
S3150FE110F02B4604AA04A900F0DBFD0C9EA17804A8F7
S3150FE1110071B141789DF8102042EA012149BA89B2BD
S3150FE111103160C178807840EA012040BA80B218E0A8
S3150FE111208278C178120442EA0161427841EA0221EA
S3150FE111309DF81020114331609DF816209DF8171088
S3150FE111400079120442EA01619DF8152041EA022174
S3150FE1115008437060207850B93068DFF8E0178842AD
S3150FE111601CBFDFF8DC17884201D000F008F8706881
S3150FE11170B8600020F860404606B0BDE8F0817868B7
S3150FE111802A4604A900F070BD70B504460020207010
S3150FE111906064A0640D4604F1900000210171417174
S3150FE111A08171C17116464FF0FF3101600020606613
S3150FE111B0A066E066FF22182104F1700000F088FDB9
S3150FE111C0FF22042104F1880000F082FDFF220421B1
S3150FE111D004F18C0000F07CFDE56426650020C04635
S3150FE111E040B10020C04610B90020C04610B1102012
S3150FE111F0207007E00020C04600B11DB10020C046B7
S3150FE1120018B116B941F20B0070BD16B1206D00F0A1
S3150FE1121021FD002070BD00002DE9F24F98B0044684
S3150FE112200020049008A8229F079091469A4641F222
S3150FE11230030808AD14E000F0CEFB404555D100F0B0
S3150FE11240A1FB41EA000600F0A8FB00B136BA606DDA
S3150FE11250052828BF6666A06D0428ECD30920207007
S3150FE112600498504580F0658320781028F8D8DFE898
S3150FE1127010F013003900F5004501C301F801A7018C
S3150FE11280F8011200F8011200BC025D031B033303E0
S3150FE1129038035D03E4E7DEE70020C04650B199F875
S3150FE112A0010099F8001051EA002003D104F19001F1
S3150FE112B00120C87100F075FB404516D10698DFF89D
S3150FE112C0841660650020A0650598884208BF022054
S3150FE112D0C5D0002840F0B88100F05FFB002841D06F
S3150FE112E00320BCE700F05DFB404540F0238304F1AA
S3150FE112F09000807920B10598DFF84416884240E0E6
S3150FE1130004F19000007900283DD004F19000407976
S3150FE11310C8BB0598DFF82C1688421CBFDFF82816E4
S3150FE1132088421FD0DFF8241688421CBFDFF820164B
S3150FE11330884217D0DFF80416884200F08180DFF883
S3150FE113401416884213D0DFF8101688420DD0DFF855
S3150FE11350F015884212D0DFF8041688421CBFDFF879
S3150FE113600016884200F0708140E00D2077E70E20ED
S3150FE113702070606DE0650020206671E70020C046B1
S3150FE1138000285BD12BE000F008FB0028059830D050
S3150FE1139040F2FE21401A24D04FF20A31401A08D00A
S3150FE113A040F2FC51401A0ED0FF3807D0FE3818D064
S3150FE113B01CE0DFF89C050590072050E7DFF89C0558
S3150FE113C005900A204BE7DFF8780505900020C04627
S3150FE113D0002802BF04F19000407900282ED10B209E
S3150FE113E03DE7DFF87C050590082038E710202070EF
S3150FE113F031E0DFF8541588421AD0DFF850158842EC
S3150FE1140014D0DFF84C158842D6D0DFF83015884274
S3150FE1141010D0DFF82C158842D8D0DFF84015884276
S3150FE11420CFD0DFF83C158842DED00BE0042016E77B
S3150FE11430062014E704F190004079002840F004817A
S3150FE114400F200CE71020207004F19000407910B1C5
S3150FE1145041F204006EE241F208006BE2A06D08284A
S3150FE1146080F0628200F0B0FA082000F086FA00F010
S3150FE11470A8FA4045F1D1E8780006B0F1407F54D1A2
S3150FE114806879297941EA0026F00704D504F190013C
S3150FE114900120087102E00020C04628B90020C046AD
S3150FE114A00028DBD0F005D9D41020207041F20A00D4
S3150FE114B040E2E878A97841EA002040BA80B24EF2DC
S3150FE114C050318842BAD1A979E879090441EA006035
S3150FE114D0697940EA01202979084300BA6066A97A59
S3150FE114E0E87A090441EA0060697A40EA0120297A3B
S3150FE114F0084300BAA0664FF0FF30E066A06D0C28F6
S3150FE1150039D200F061FA0C2000F037FA00F059FAFF
S3150FE1151040450ED168789DF8201041EA002040BA87
S3150FE1152000F47F40B0F5007FC3D01020207041F268
S3150FE115300900FFE1E16EFF2000F06CFB0146E16679
S3150FE11540FF2000F067FBE0660146A87800F062FB3A
S3150FE11550E0660146E87800F05DFBE066D7F804C087
S3150FE11560BCF1000F07D03B68606E042208A9E04783
S3150FE11570606E001D6066A06D616D884216D204989B
S3150FE11580AAEB000100F015FA0428C0F00581A06D61
S3150FE11590A0F10C0600F01FFA4045CAD1102EC9D0B2
S3150FE115A0E26E042108A800F047FBD6E7A16EE06ED4
S3150FE115B0C943884240F02781189901204870B3E169
S3150FE115C0606DA16D8142FAD20190012108A80391C4
S3150FE115D002910090534604AA00F0F2F9404537D143
S3150FE115E018981C2208A90830FFF79CFC18990120CE
S3150FE115F04870E5E705202070A06D0828BFF430AEEE
S3150FE116000120039002905346082000F0D5F940459A
S3150FE116101ED11899D34A0120087000F0B3F9084397
S3150FE1162018994860D048006801689142E2D1AA79D9
S3150FE11630E979C068120442EA01616A7941EA022155
S3150FE116402A7911438142D5D01020207041F2010051
S3150FE1165070E13B68A06E324608A9E047A06E3018EC
S3150FE11660A066606DA16D8142A9D2461A0498042E37
S3150FE11670AAEB00012046C0F08A80FFF7C5FC0428DB
S3150FE11680C0F08A800498AAEB00000090412E014633
S3150FE1169028BF402600F08DF9B04203D2009900F041
S3150FE116A088F90646042E24BFB608B600012003903A
S3150FE116B00290019608A80090534604AA00F080F91B
S3150FE116C04045C5D12078072804D1D7F808C0BCF129
S3150FE116D0000FBED1C6F10400042E009007D20146D9
S3150FE116E008A8FF22801900F0F3FA009886192078EE
S3150FE116F0092858D17968002955D000F01DFB616E94
S3150FE11700001D7218824221D300F1180399421DD2AE
S3150FE117108346884238BF8B469A4288BF1A46019262
S3150FE11720ABEB010108AA11440091ABEB0000019963
S3150FE11730A1EB0B02009920447030FFF7E3FB019810
S3150FE11740A0EB0B010098FF2200F0C2FA00F0F8FAC5
S3150FE11750616E001D884222BF7218031D9A420BD398
S3150FE11760079A8018A0EB010B0422594604F1880071
S3150FE11770FFF7C8FB00F0FCF83B68606ED7F804C0D2
S3150FE11780324608A9E047606E3018606669E7FFF7F1
S3150FE117903BFCB042BFF476AF049A53464946204626
S3150FE117A0FFF7F0FBC5E00528F0D1F8680028EDD08A
S3150FE117B0E06E05280ED2311807290BD30799091DBB
S3150FE117C0A1EB000B0422594604F18C00FFF79AFBBB
S3150FE117D000F0CEF83B68E06ED7F80CC0324608A9A8
S3150FE117E0E047E06E3018E0663BE700200390029099
S3150FE117F05346042000F0E0F8404508D1D4F89000B4
S3150FE118005A49884204D01020207041F2050091E038
S3150FE118100020C04618B918990120C87003E018983E
S3150FE11820C07800283AD0E06E90B100F0B6F878B9FA
S3150FE11830D7F80C905FEA09000AD0042204F18C0173
S3150FE1184008A8FFF75FFB3B68042208A90420C847F5
S3150FE11850606E00281CBF786800281FD0182204F19B
S3150FE11860700108A8FFF74EFB00F066FA3B68D7F860
S3150FE118700490182208A9001DC84700F061FA050077
S3150FE118800CD0042204F1880108A8FFF73BFB3B6863
S3150FE11890D7F80490042208A9281DC84718990120F2
S3150FE118A088700C20207044E0A06D10283CD200F027
S3150FE118B08BF8102000F061F800F083F8404539D13C
S3150FE118C000F052FA8021009001910123E06C09AA00
S3150FE118D0022100F0CEF9E7E704F19001012048710A
S3150FE118E022E004F190008079F0B90390029053461B
S3150FE118F0402000F061F840451CD1206D00F0B6F9AB
S3150FE11900206D10AA08A900F037FA38B1189900200E
S3150FE11910C8701020207041F206000BE018990120E3
S3150FE11920C87004F190018871012098E441F2070033
S3150FE1193000E0002019B0BDE8F08F0000F70A0AF7C2
S3150FE11940FC0404FCEB17A603F40A0AF4F50909F5FE
S3150FE11950F60808F6F90707F9FA0606FAFD0303FD95
S3150FE11960FE0101FEAD1007B02800E10FE320BBDE5B
S3150FE11970FF220421584600F0ABB90190494608A869
S3150FE1198000907047A978E878090441EA0060697820
S3150FE1199040EA01209DF82010704704F19000C079CC
S3150FE119A0704705A80090534604AA49462046FFF71B
S3150FE119B081BB2046FFF728BB019004AA08A8009037
S3150FE119C049462046FFF723BB0020039053460120EB
S3150FE119D0029004AA70470120039002905346042017
S3150FE119E0019004AA08A8009049462046FFF70FBBCD
S3150FE119F0890001EB401000F1844002607047DFF887
S3150FE11A0074104A68D20702D40A680242FCD17047C1
S3150FE11A1070B502120C4602F00F020021521E092A7E
S3150FE11A20DFF8545014D8DFE802F005141313071644
S3150FE11A3019131C20DFF83850C0F3043611B10846EC
S3150FE11A40FFF7DDFF224631462846BDE87040CFE776
S3150FE11A5070BD1035F0E730350121EDE7383510214E
S3150FE11A60EAE740354FF48031E6E7DFF81050E3E778
S3150FE11A7000400E4040410E40B0400E4050410E40F6
S3150FE11A803023254A584310440C3000F1806006E0BC
S3150FE11A903023214A584310440C3000F1C060012233
S3150FE11AA002FA01F101607047F8B5044616463000B7
S3150FE11AB00D461F4607D0002F204602D0FFF7E8FF5D
S3150FE11AC001E0FFF7DDFF30210F22134811FB04F18F
S3150FE11AD0082D084405D2AB00416800F015F84160C6
S3150FE11AE006E0A5F108039B00816800F00DF881601F
S3150FE11AF04EB9002F2946204602D0BDE8F440C7E78C
S3150FE11B00BDE8F440BCE7F1BD9A4021EA020206FACC
S3150FE11B1003F111437047000000A000401FB52648AE
S3150FE11B20016841F4801101606C462448016841F077
S3150FE11B300101016000F056F94FF47A71B0FBF1F053
S3150FE11B401F49800A48600FF288000FC884E80F002A
S3150FE11B500A208DF8020069461A4800F081F91FBD87
S3150FE11B6030B5194A164C1369656805FB003060807C
S3150FE11B709BB260889842AD41ED0F257011B11169A5
S3150FE11B808142FCD101201060506030BD0C490F48F5
S3150FE11B900A78002A026803D0D20705D400207047DD
S3150FE11BA0D20701D501207047806949888842804173
S3150FE11BB0C043C00F7047000000400E40C0400E40CA
S3150FE11BC02013002000800140148001400C80014069
S3150FE11BD0010000000000000000000000000000000E
S3150FE11BE000B500BF130096469446103928BFA0E80A
S3150FE11BF00C50FAD85FEA417C28BF0CC048BF40F8C9
S3150FE11C00042BC90728BF20F8022B48BF00F8012B88
S3150FE11C1000BDFEE70A0A484000F0FF00082143082D
S3150FE11C20C00746BF034858401846491EF7D15040F2
S3150FE11C30704700002083B8ED70B504460D46104697
S3150FE11C40002604E00146A05DFFF7E4FF761CAE42F5
S3150FE11C50F8D370BD10B5044600F096F92046BDE8FD
S3150FE11C601040002100F093B900F0F9B9014600F0F8
S3150FE11C702DBAF8B505460E4617461C4600F072FB1F
S3150FE11C80079A0699284600F070FB05F1240000211A
S3150FE11C90016006750C22394605F13900FFF732F975
S3150FE11CA005F14500210C01708470210A4170F1BDE7
S3150FE11CB010B584B01C460191029200F12801009102
S3150FE11CC000F1380300F12402214600F095FB1FBD18
S3150FE11CD062F30F2262F31F42401810F0030308D09C
S3150FE11CE0C91A1FD3DB0748BF00F8012D28BF20F81B
S3150FE11CF0022D130030B414461546103928BF20E9DA
S3150FE11D003C00FAD8490728BF20E90C0048BF40F844
S3150FE11D10042D890028BF20F8022D48BF00F8012DB8
S3150FE11D2030BC7047C91818BF00F8012DCB0728BF83
S3150FE11D3000F8012D7047FEE7064800680069704715
S3150FE11D400548064A00680168914201D1006970476A
S3150FE11D50002070472808E10F2800E10FAD1007B00A
S3150FE11D600248704702487047024870474A43E00FFE
S3150FE11D706A43E00F8642E00F70B504000D4618BFC7
S3150FE11D80002DA2B0164600D016B940F2016023E04D
S3150FE11D9001211248FFF73CFE402111A8FFF7EEF8AB
S3150FE11DA0FFF7DEFF014611A800F01DFEFFF7DAFF90
S3150FE11DB0014619A800F017FE294601A800F013FE07
S3150FE11DC0314609A800F00FFE01A8009011AB2022C1
S3150FE11DD02146034800F016FE22B070BD000508004B
S3150FE11DE000000F400F4A1049136803F00703022B57
S3150FE11DF04FF4004004D005D3042B04D003D301E004
S3150FE11E00086800E04868D16EC1F30421491CB0FBB4
S3150FE11E10F1F070470548016841F4700101607047C0
S3150FE11E200000000094400E401001002088ED00E014
S3150FE11E30074988421CBF0749884205D006498842AF
S3150FE11E401CBF0649884201D1012070470020704727
S3150FE11E50008001400084014000A0014000A4014040
S3150FE11E602DE9F84304460D46FFF7E2FF2878010016
S3150FE11E7004BF0221616000216162697801B14021ED
S3150FE11E806A7A02B18022AB7A03B12023EE7A06B1E8
S3150FE11E90102695F8049095F805C095F80CE0EF78C3
S3150FE11EA095F80280B9F1000F18BF4FF40059BCF154
S3150FE11EB0000F18BF4FF0805CBEF1000F18BF4FF057
S3150FE11EC0080E3F0447EA0868AF7948EA8728EF79B1
S3150FE11ED02D7A48EA07273D432943114319433143F5
S3150FE11EE049EA01014CEA01014EEA0101216008B11B
S3150FE11EF001206060BDE8F18310B54A688B68CC6854
S3150FE11F000968016002600360046010BD10B50268E4
S3150FE11F100368046800680A608C604B60C86010BD96
S3150FE11F2038B504460D46FFF7F1FF05F110012046DE
S3150FE11F30BDE83440EAE738B504460D46FFF7DCFF66
S3150FE11F4005F110012046FFF7D7FF05F120012046E5
S3150FE11F50FFF7D2FF05F130012046BDE83440CBE76C
S3150FE11F6010B50C4614F0030188B008D06946FFF7A7
S3150FE11F70D7FF202269462046FEF7C4FF02E021463D
S3150FE11F80FFF7CEFF08B010BD6C21FEF7F7BF79B9A9
S3150FE11F90734A0260734A4260734A8260734AC2604F
S3150FE11FA0734A0261734A4261734A8261734A0EE070
S3150FE11FB0734A0260734A4260734A8260734AC2602F
S3150FE11FC0734A0261734A4261734A8261734AC2611B
S3150FE11FD08166002202624262002070472DE9F041DC
S3150FE11FE06F4E90B0044630686E4FDFF8BC8140F01B
S3150FE11FF0010030600D466D486D490160416821F47D
S3150FE120004061416010210163002141636949016526
S3150FE120106949416538462146FFF76EFF04F1100124
S3150FE120203846FFF769FF15F0030009D0402229462C
S3150FE120306846FEF767FF69464046FFF77CFF03E018
S3150FE1204029464046FFF777FF21463846FFF768FFF7
S3150FE12050306840084000306010B0BDE8F0812DE9EE
S3150FE12060F041160004460D462ED0206A00F03F07D8
S3150FE120703018B042C7F14008206202D2606A401CB4
S3150FE120806062B7B1464514D3E01942462830FEF7F0
S3150FE1209039FF04F128012046FFF7A0FF4544A6EBDF
S3150FE120A00806002705E029462046FFF797FF40354A
S3150FE120B0403E402EF7D23EB132462946E019BDE801
S3150FE120C0F0412830FEF71EBFBDE8F0817CB504462E
S3150FE120D00D46616A206A324EC90041EA50718DF8A8
S3150FE120E00310C0000B0C8DF801300A0E0B0A010E1E
S3150FE120F08DF804108DF80700010C8DF805108DF899
S3150FE121000020010A8DF802308DF8061094F82000B0
S3150FE121100FF2AC0100F03F00382834BFC0F13802AE
S3150FE12120C0F178022046FFF79AFF0822694620465A
S3150FE12130FFF795FF306840F00100306029461F48F0
S3150FE12140FFF70EFF3068400840003060A06E20B107
S3150FE12150042105F11C0000F0B3FD73BD0000000082
S3150FE1216067E6096A85AE67BB72F36E3C3AF54FA532
S3150FE121707F520E518C68059BABD9831F19CDE05B5E
S3150FE12180D89E05C107D57C3617DD703039590EF764
S3150FE12190310BC0FF11155868A78FF964A44FFABE2A
S3150FE121A0B0400E4000010F40A4010F4000000F4068
S3150FE121B0040010307081C872070D010030010F4025
S3150FE121C08000000000000000000000000000000099
S3150FE121D00000000000000000000000000000000009
S3150FE121E000000000000000000000000000000000F9
S3150FE121F000000000000000000000000000000000E9
S3150FE1220010B54A688B68CC680968016002600360A3
S3150FE12210046010BD10B502680368046800680A60BF
S3150FE122208C604B60C86010BD38B504460D46FFF7AC
S3150FE12230E7FF05F110012046BDE83440E0E71FB5A1
S3150FE12240044611F0030008D010226846FEF75AFE45
S3150FE1225069462046FFF7D4FF1FBD2046FFF7D0FFA3
S3150FE122601FBD1FB50C4614F0030108D06946FFF7F1
S3150FE12270D1FF102269462046FEF744FE1FBD2146D7
S3150FE12280FFF7C8FF1FBD80B50168802903D0B1F5FF
S3150FE12290807F0FD012E0DFF84422012111604268FE
S3150FE122A0DFF83C120A6082680A60C2680A60006958
S3150FE122B0086001E000F026F8002002BD6FF01F0074
S3150FE122C002BD38B50168DFF81842DFF818528029E8
S3150FE122D003D0B1F5807F0DD011E0DFF800220121A7
S3150FE122E011604168216081682160C16821600069E0
S3150FE122F0206001E000F006F8E562002032BD6FF0E4
S3150FE123001F0032BDDFF8E02101211160011DDFF869
S3150FE12310DC0189E72DE9F0470709DFF8D441102001
S3150FE12320A062089D099E884691469A4614E02EB111
S3150FE1233027B9102249463046FEF7E4FD49464046A5
S3150FE12340FFF77DFF4FF40070206029465046FFF7F7
S3150FE1235088FF103509F110093846471E0028E6D1E6
S3150FE12360BDE8F0872421FEF709BE80B5802A18BFA4
S3150FE12370B2F5807F00D0A1E7FFE740F8042BD20842
S3150FE12380FEF7C0FD002002BD2DE9F843DFF86461D9
S3150FE12390DFF86471DFF864918046306840F0010040
S3150FE123A030601446002038607860386301291D4695
S3150FE123B0786309D100F01DF84046FFF764FF5FEA45
S3150FE123C000080FD1052008E04046FFF77AFF5FEAE4
S3150FE123D0000807D100F00DF80620B86029464846F7
S3150FE123E0FFF73FFF30684008400030604046BDE8E8
S3150FE123F0F2832146484622E72DE9F04F83B089461D
S3150FE12400DDF834A00E9C19F00F0F804615461E46D7
S3150FE1241004D1002D1CBF2868002828D02F68DDF8CD
S3150FE1242030B01DE097B95B46324601214046FFF7D2
S3150FE12430ABFF10203118321811F8011C491C02F8B4
S3150FE12440011CC9B211B9401E0128F3DA1AF8010BC2
S3150FE124501BF80710484004F8010B781C00F00F0732
S3150FE124605FEA0900A0F10109DCD12F6032E0214DCD
S3150FE12470214F286840F0010028600020386078601D
S3150FE12480386378634046FFF7FEFE5FEA00081CD12A
S3150FE124901249DFF86CB04FF440400860124908600A
S3150FE124A031465846FFF7CBFE1748144B15493865A9
S3150FE124B05246512078650020019000944846FFF777
S3150FE124C029FF31465846FFF7CCFE28684008400001
S3150FE124D028604046BDE8FE8F0000000000000F4473
S3150FE124E024000F40058C010000000F4610010F403C
S3150FE124F008000F40B0400E4000000F4080000F4033
S3150FE1250084000F4088000F404805460310B54A681E
S3150FE125108B68CC680968016002600360046010BDD6
S3150FE1252010B502680368046800680A608C604B6046
S3150FE12530C86010BD38B504460D46FFF7E7FF05F154
S3150FE1254010012046BDE83440E0E738B504460D46B4
S3150FE12550FFF7E6FF05F110012046BDE83440DFE75E
S3150FE125608C220FF2D06150430844007A70478C22D7
S3150FE125700FF2C06150430844407A704710B500F03E
S3150FE1258010F8BDE8104000F10C0106E010B500F0BF
S3150FE1259008F8BDE8104000F12C0120221846FEF79D
S3150FE125A0B1BC0B468C240FF28C6160430844704733
S3150FE125B038B504464FF48470154600F03EF94FF4F2
S3150FE125C08670294600F039F9DFF8CC052065012040
S3150FE125D060656069000E00F0010080F0010032BD18
S3150FE125E02DE9F04700F0EFF888B091469A4608F1E9
S3150FE125F0400100F0E6F84FF486702518494600F0E1
S3150FE12600DBF84FF48870261809F120013046FFF701
S3150FE1261091FFDFF888052065414600F0DCF900F00F
S3150FE12620CDF84FF4847004EB000908F12001484618
S3150FE12630FFF780FF08F140013046FFF77BFFDFF838
S3150FE12640600520650AF14001DFF858056065012054
S3150FE12650A0654FF4807026183046FFF776FF69467E
S3150FE126604846FFF772FF00F0A6F8DFF83C05206554
S3150FE1267008F12001DFF834056065DFF8340500F075
S3150FE126809DF8DFF8300520655146DFF82C056065CA
S3150FE126900120A0654846FFF758FF69463846FFF720
S3150FE126A049FFDFF8180520650AF12001DFF810056B
S3150FE126B060650120A0653046FFF747FF08B0BDE82A
S3150FE126C0F0872DE9F04700F07EF898B0914608F1D2
S3150FE126D0200100F076F8DFF8C404206508A9DFF8D9
S3150FE126E0E4046065DFF8E004A06500F09BFA00F012
S3150FE126F062F8DFF8D804206510A9DFF8D404606525
S3150FE127004FF48670A06526183046FFF71EFF69461F
S3150FE1271000F08BFA08F1400100F053F8DFF8B4044A
S3150FE1272020654146012060654FF4847004EB000A91
S3150FE1273000F07EFADFF8A00420656946DFF89C0415
S3150FE127406065DFF89C04A0650120E0655046FFF760
S3150FE12750F1FE10A93046FFF7EDFEDFF8880420659C
S3150FE127604946DFF884046065DFF88004A0654FF41D
S3150FE1277088702044FFF7E9FE08F1200100F021F807
S3150FE1278008F1400100F054FA08A93046FFF7D2FEEE
S3150FE12790DFF85C04206509F14001DFF85804606554
S3150FE127A02846FFF7D2FE09F120013046FFF7CDFEAD
S3150FE127B018B0BDE8F08741462846BBE6A065012083
S3150FE127C0E0653846B6E604464FF482708846271828
S3150FE127D07047F8B504460E461D4617462021284692
S3150FE127E0FEF7CCFB0120286039464FF4807000F0EC
S3150FE127F024F84FF48270314600F01FF84FF48470DD
S3150FE12800261829463046FFF795FEDFF8EC032065DB
S3150FE128100BE0DFF8E8032065DFF8E4036065DFF836
S3150FE12820E403A065DFF8E003E0656069C001F0D578
S3150FE1283029463046BDE8F44087E620447AE650F86B
S3150FE12840043B934203D007E050F8042B22B9091F4A
S3150FE128500129F9DA01207047002070472DE9F0418F
S3150FE1286088B004460E461546984620216846FEF77F
S3150FE1287085FB0120009020210E9F3846FEF77EFB57
S3150FE12880202107F12000FEF779FB202107F1400017
S3150FE12890FEF774FB3046FFF763FE00F0A0F800F099
S3150FE128A095F88C210FF28C3011FB06F10844406844
S3150FE128B0461E00E0761E012E16DB00F03EF8F9D536
S3150FE128C012E0202229463846FEF72CFB202205F19D
S3150FE128D0200107F12000FEF725FB2022694607F1CB
S3150FE128E04000FEF71FFB761E002E23D43A463946EB
S3150FE128F02046FFF7E6FE00F020F8F4D5002220216E
S3150FE129003846FFF79CFF70B10022202107F1200026
S3150FE12910FFF795FF38B10022202107F14000FFF7BD
S3150FE129208EFF0028CDD13B462A4639462046FFF792
S3150FE1293057FED8E708B0BDE8F081301106EBD0605D
S3150FE12940401158F82010A6EB4010C140C807704758
S3150FE12950F0B504460F4691B015461E463846FFF7C9
S3150FE12960FFFD00F03CF800F031F869463846FFF715
S3150FE1297005FE08AB6A4605F140012046FFF729FF40
S3150FE129804FF4827008A92044FFF7D4FD4FF4867007
S3150FE1299027182946FFF715FF4FF4887005F1200137
S3150FE129A0FFF74BFF7D48206506F1200100F013F894
S3150FE129B0A0650120E0654FF480702044FFF7C5FD67
S3150FE129C031463846FFF7C1FD11B0F0BD002020605A
S3150FE129D02063606370478D4860658D487047014697
S3150FE129E0204600F071B938B50D4604462021FEF7B1
S3150FE129F0C5FAFFE71F204242295C2244401ED177E8
S3150FE12A00F9D531BD2DE9F0470F00984618BFB8F15A
S3150FE12A10000FBAB00446154603D0429E0EB1012D02
S3150FE12A2002DA40F20160B4E0FFF7D0FF606840F0F0
S3150FE12A30100060600020FFF79AFDFFF7D0FF606896
S3150FE12A4020F4406040F40060606009A9606820F4FA
S3150FE12A50407040F4007060600020FFF797FD09AA0F
S3150FE12A6031462046FFF7A4FD30B909AA06F1200148
S3150FE12A702046FFF79DFD10B140F2026089E0212D5E
S3150FE12A80A8BF2025202111A8FEF778FA002014E02F
S3150FE12A902A1A521E01A99208A5F1010C01EB820136
S3150FE12AA0ACEB000C3B5C0A6C4FEACC0C0CF0180C4F
S3150FE12AB003FA0CF31A430A64401CA842E8DB4FF40D
S3150FE12AC08470271811A93846FFF734FD5148206560
S3150FE12AD011A900F0A7F819AB09AA06F120012046C2
S3150FE12AE0FFF777FE4FF4827019A92044FFF722FD15
S3150FE12AF04FF4887004EB000911A94846FFF71AFD58
S3150FE12B004FF4867004EB000A00F091F84248206515
S3150FE12B1011A9424860654846FFF717FD19A900F06C
S3150FE12B2084F821A8009011AB0FF254120021204630
S3150FE12B30FFF794FE01A8009019AB4246002120460B
S3150FE12B40FFF78CFE21AB21AA00212046FFF700FFFC
S3150FE12B5001AB21AA01A92046FFF742FD01AB01AA6C
S3150FE12B6000212046FFF7F4FE0020FFF700FDFFF7F7
S3150FE12B7036FF01A93846FFF7DDFC00F058F8284883
S3150FE12B802065214860656069C0014CBF002040F2B5
S3150FE12B9004603AB0BDE8F0873035DA108AD11C818E
S3150FE12BA0D01482CB1481E11C8CE11C811C84D91CCD
S3150FE12BB08391D11CE014D8141482E11C84D31482BE
S3150FE12BC0D11CE014821CC00C0C0C0100C00C0C8350
S3150FE12BD0D91C83D88AD11C83DA0C811482D11C814A
S3150FE12BE0C80C0C818CE11CD01484E31482D11C0136
S3150FE12BF0D81483D11CC00C0139398401D02484FC4B
S3150FE12C001C82FED88B1C81A039380100D91C83D1D7
S3150FE12C101C81E11C30D00C0130E11C8430D91C0140
S3150FE12C203035DA144FF48070251828468DE4314695
S3150FE12C3050467FE42000000000010000050C000073
S3150FE12C40FFFFFFFFFFFFFFFFFFFFFFFF000000009A
S3150FE12C50000000000000000001000000FFFFFFFF81
S3150FE12C60512563FCC2CAB9F3849E17A7ADFAE6BC38
S3150FE12C70FFFFFFFFFFFFFFFF00000000FFFFFFFF6A
S3150FE12C8096C298D84539A1F4A033EB2D817D037710
S3150FE12C90F240A463E5E6BCF847422CE1F2D1176BAB
S3150FE12CA0F551BF376840B6CBCE5E316B5733CE2B7E
S3150FE12CB0169E0F7C4AEBE78E9B7F1AFEE242E34FAD
S3150FE12CC00022FFF709B8FEE742685209042941EAF3
S3150FE12CD0421209D9491F022908D9C91E032903D965
S3150FE12CE0091F022902D970474260704742F010016D
S3150FE12CF04160704738B5174C206840F008002060F6
S3150FE12D000123042200F02AF8002001E00098401C7C
S3150FE12D10009000986428F9DB0123022200F01EF8E7
S3150FE12D20002001E00098401C00900098B0F5FA7F72
S3150FE12D30F8DB09480068012814BF012500250123A6
S3150FE12D40002200F00BF8206820F0080020602846EA
S3150FE12D5032BD0000B0400E409821144206210520F5
S3150FE12D60FEF7A2BE4FF40170FEF792F800BF44489A
S3150FE12D70444900680860444944480068000E08D198
S3150FE12D804AF6E852CA624A6B42F004024A630022EB
S3150FE12D90CA62022803DA086840F4005008603C482A
S3150FE12DA0016821F4401141F4881101603948016845
S3150FE12DB041F48071016040213748C16001684903E0
S3150FE12DC0FCD40020C046FEF75EF8FDF759FDFDF78E
S3150FE12DD059FD88B9FDF77AFD0446C046C04640F273
S3150FE12DE001205CB140F205718C420EBF40F2032027
S3150FE12DF040F203718C4201D04FF40170FEF748F8AF
S3150FE12E0000BF000038B52548016801240125B1F559
S3150FE12E10803F08BF002512D0006840050AD5FEF7AE
S3150FE12E2059F840F20221401A07D0C01E05D0C01E44
S3150FE12E30012802D9FFF75EFF08B10024002504201F
S3150FE12E40006810F1010F06D1BDE832404FF4027070
S3150FE12E50FEF712B831BD25B1002000F07DF8040070
S3150FE12E60F2D0002CF6D00E49002008600022104661
S3150FE12E70016881F3088881F3098840688746FEE790
S3150FE12E80140100201801002064310E40FC81E00F8F
S3150FE12E9020400E4000000E4004300E4004500E401C
S3150FE12EA008ED00E02DE9F0410446664800688846E2
S3150FE12EB0016916468C4222BF37194069B84216D3CB
S3150FE12EC0E00AB4EBC02004BF204600F0EFF804F5AA
S3150FE12ED00060C50AED0204E0284600F0E7F805F5C3
S3150FE12EE00065BD42F8D332464146204630E0BDE8A3
S3150FE12EF0F0812DE9F04188465349544B096815464F
S3150FE12F000A689A4222D1096946184E4909684A69FF
S3150FE12F10AF19BA421AD310B9086900F0C7F8F00A27
S3150FE12F20B6EBC02004BF304600F0C0F806F50060EE
S3150FE12F30C40AE40204E0204600F0B8F804F50064A0
S3150FE12F40BC42F8D32A464146304601E0BDE8F0815E
S3150FE12F50BDE8F04100F0D4B87FB5044668460FF2FC
S3150FE12F6004111022FDF7DEFF22686068616B02F142
S3150FE12F706042B2F5802F2AD8324D2A681269904203
S3150FE12F8025D3334B984222D202F1400081420E46BD
S3150FE12F9001D3994205D30020C046401E8041C00FA0
S3150FE12FA01CE00020C046A0B900F056F8A8B9706938
S3150FE12FB098B102280DD12868B1690069091D4FF052
S3150FE12FC0FF32091AFEF738FE2249884205D0002062
S3150FE12FD004E0204600F004F800E0012004B070BDE3
S3150FE12FE050B59FB0044668460FF288011022FDF7EF
S3150FE12FF099FF666B00F030F818B97069012808D1AE
S3150FE13000B669104800680069864202D3B6F5801F9B
S3150FE1301001D9002013E004A8FEF71CFE321B21465E
S3150FE1302004A8FEF721FE04A8FEF720FE06F1200212
S3150FE13030314604A8FEF7A0FE401E8041C00F1FB027
S3150FE1304050BD00002808E10F2800E10FAD1007B0D1
S3150FE1305001001000E320BBDE10226946304600F086
S3150FE1306085B8000013B779FAC925DDB7ADF3CFE01F
S3150FE13070F1B614B813B779FAC925DDB7ADF3CFE0D9
S3150FE13080F1B614B8084841F6713181630168490810
S3150FE130904900016070470448016849084900016029
S3150FE130A0002181637047000008000E4010B5044609
S3150FE130B0FFF7E8FF204600F016F90446FFF7EBFFAE
S3150FE130C0601E8041C00F10BD10B58408800782B025
S3150FE130D005D5080440F47F4040F0FF0003E041F0DE
S3150FE130E07F4040F47F000090FFF7CCFF0422694652
S3150FE130F0A00000F031F90446FFF7CDFF204616BDDB
S3150FE131002DE9F04104460E46154604F0010005F09F
S3150FE131100101084327D125B3A00708D536F8021BCD
S3150FE131202046FFF7D1FFF0B9A41CAD1E19D0AF08A9
S3150FE13130FFF7A8FFBF003A463146204600F00CF9EB
S3150FE131408046FFF7A8FF3C197808B8F1000F06EBA8
S3150FE13150400608D1E81B04D031882046FFF7B4FFBB
S3150FE1316008B9012000E00020BDE8F081030000204E
S3150FE1317013F0030F09D0521E22BF13F8010B11F8FA
S3150FE1318001CBB0EB0C00F3D07047121F22BF53F8FF
S3150FE13190040B51F804CB6045F7D0121D0AD200BAE1
S3150FE131A09CFA8CFCB0EB0C0038BF6FF0000088BFC7
S3150FE131B001207047521E22BF13F8010B11F801CB04
S3150FE131C0B0EB0C00F6D0521C08BF10467047FEE775
S3150FE131D06449654A01E021B1491E1369DB07FAD457
S3150FE131E001B9B0E0506001201060106910F0060FD0
S3150FE131F005D0410700D5A9E0800700D5A9E0002059
S3150FE132007047F0B513460022002936D0554C564D7E
S3150FE132108BB98B4231D250F8046BEE605B1C0826FA
S3150FE132202E60264601E036B3761E2F69FF07FAD4E4
S3150FE13230002EEED11FE0EFF3108672B600230EE0FB
S3150FE132402F6907F01907102F08BF2F602F693F0766
S3150FE13250F6D550F8047BEF605B1C10272F608B428D
S3150FE13260F4D306B962B6264601E026B1761E286981
S3150FE13270C007FAD40EB96FF002021046F0BD2DE980
S3150FE13280F0479A46354B364F1C681B683B688046BC
S3150FE13290002043F001033B60950881460C4602E0AE
S3150FE132A0B14404EB8604A94517D208EB89063046EB
S3150FE132B0FFF78EFF010014D1C6F30A00C0F50060D7
S3150FE132C08608A5EB0900B04238BF0646524631469D
S3150FE132D02046FFF796FF0100E2D039684908490019
S3150FE132E03960BDE8F0871D491E4A0B6809681C491C
S3150FE132F00B6843F001030B60886001204860486961
S3150FE13300400704D508684008400008601EE0486998
S3150FE13310800704D5086840084000086019E00220DC
S3150FE13320486001E022B1521E4869C007FAD422B9BA
S3150FE13330086840084000086005E00868400840005A
S3150FE133400860002070476FF0020070474FF0FF30C2
S3150FE1335070476FF001007047002390E704300E408D
S3150FE1336008000E40809698000C000E404EF68851EC
S3150FE13370CEF20001086840F470000860BFF34F8F8A
S3150FE13380BFF36F8F4FF00070E1EE100A7047FEE763
S3150FE133900120C046002801D000F008F80020AFF365
S3150FE133A00080FFF7E4FC00F015F8FEE710B50749DA
S3150FE133B079441831064C7C44163404E00A68081D3A
S3150FE133C0114488470146A142F8D110BD30010000F2
S3150FE133D04C01000000F000B80746384600F002F84D
S3150FE133E0FBE700002021090326311820ABBEF9E7E0
S3150FE133F0002070470020704780B5FEF70BFDFFF701
S3150FE1340001FDBDE8014000F000B8AFF30080FFF722
S3150FE13410ADFFFFF7BDFF10B5B1F5C07F044602D290
S3150FE1342040F2052010BD4FF4C071FDF7A7FD4FF433
S3150FE134308270221804F1BC0104F12400BDE81040AA
S3150FE13440FDF7A2BE10B582B00446009104F1240047
S3150FE134502146FDF7E1FE00281CBF41F20701884234
S3150FE13460C4F87C010CD1A01C017839B1407810B1B8
S3150FE1347040F2032016BD40F2022016BD40F20120B4
S3150FE1348016BD19E050F8041BCB0744BFA9F10103A0
S3150FE134905918121F0023042A41F8043BF9D25FEAB7
S3150FE134A0827C0B4604D54FF0000CA1F800C09B1CA3
S3150FE134B0D10744BF0021197050F8042B002AE1D13E
S3150FE134C0704730B5016842688468014401EB5203E5
S3150FE134D0D20748BF4C44994201D10C3030BD11F9A6
S3150FE134E0012B11F8015B002A04F8015B02D5521C8E
S3150FE134F0F9D1F0E7521EF4D5EDE7000087FFFFFFA4
S3150FE135000C0200002011002000000000B7FFFFFFB2
S3150FE135100C0000003C0000008000002081000C0040
S3150FE13520F07F10308000002034000140FB000AF0EC
S3150FE135304902C0EA2101C0EA2101000000000000B2
S7050FE1340BCB
